{
  "abi": [
    {
      "inputs": [
        {
          "internalType": "string",
          "name": "str1",
          "type": "string"
        },
        {
          "internalType": "string",
          "name": "str2",
          "type": "string"
        }
      ],
      "name": "appendString",
      "outputs": [
        {
          "internalType": "string",
          "name": "result",
          "type": "string"
        }
      ],
      "stateMutability": "pure",
      "type": "function"
    },
    {
      "inputs": [
        {
          "internalType": "string",
          "name": "str1",
          "type": "string"
        },
        {
          "internalType": "uint256",
          "name": "i",
          "type": "uint256"
        }
      ],
      "name": "appendUint",
      "outputs": [
        {
          "internalType": "string",
          "name": "result",
          "type": "string"
        }
      ],
      "stateMutability": "pure",
      "type": "function"
    },
    {
      "inputs": [
        {
          "internalType": "uint256",
          "name": "i",
          "type": "uint256"
        },
        {
          "internalType": "string",
          "name": "str",
          "type": "string"
        }
      ],
      "name": "prependNumber",
      "outputs": [
        {
          "internalType": "string",
          "name": "result",
          "type": "string"
        }
      ],
      "stateMutability": "pure",
      "type": "function"
    }
  ],
  "bytecode": {
    "object": "0x608060405234801561001057600080fd5b506104c2806100206000396000f3fe608060405234801561001057600080fd5b50600436106100415760003560e01c8063314899071461004657806382a5be331461006f578063c35085fb14610082575b600080fd5b610059610054366004610362565b610095565b6040516100669190610413565b60405180910390f35b61005961007d3660046103a7565b6100c9565b6100596100903660046102fe565b6100e6565b6060826100a1836100fb565b6040516020016100b29291906103e4565b604051602081830303815290604052905092915050565b60606100d4836100fb565b826040516020016100b29291906103e4565b606082826040516020016100b29291906103e4565b6060600061010883610198565b600101905060008167ffffffffffffffff81111561012857610128610476565b6040519080825280601f01601f191660200182016040528015610152576020820181803683370190505b5090508181016020015b600019016f181899199a1a9b1b9c1cb0b131b232b360811b600a86061a8153600a850494508461018b57610190565b61015c565b509392505050565b60008072184f03e93ff9f4daa797ed6e38ed64bf6a1f0160401b83106101d75772184f03e93ff9f4daa797ed6e38ed64bf6a1f0160401b830492506040015b6d04ee2d6d415b85acef81000000008310610203576d04ee2d6d415b85acef8100000000830492506020015b662386f26fc10000831061022157662386f26fc10000830492506010015b6305f5e1008310610239576305f5e100830492506008015b612710831061024d57612710830492506004015b6064831061025f576064830492506002015b600a831061026b576001015b92915050565b600082601f83011261028257600080fd5b813567ffffffffffffffff8082111561029d5761029d610476565b604051601f8301601f19908116603f011681019082821181831017156102c5576102c5610476565b816040528381528660208588010111156102de57600080fd5b836020870160208301376000602085830101528094505050505092915050565b6000806040838503121561031157600080fd5b823567ffffffffffffffff8082111561032957600080fd5b61033586838701610271565b9350602085013591508082111561034b57600080fd5b5061035885828601610271565b9150509250929050565b6000806040838503121561037557600080fd5b823567ffffffffffffffff81111561038c57600080fd5b61039885828601610271565b95602094909401359450505050565b600080604083850312156103ba57600080fd5b82359150602083013567ffffffffffffffff8111156103d857600080fd5b61035885828601610271565b600083516103f6818460208801610446565b83519083019061040a818360208801610446565b01949350505050565b6020815260008251806020840152610432816040850160208701610446565b601f01601f19169190910160400192915050565b60005b83811015610461578181015183820152602001610449565b83811115610470576000848401525b50505050565b634e487b7160e01b600052604160045260246000fdfea2646970667358221220e17f2d1f9107b92c82f73ea09c2e0f919a32ca61e106ec8116c00ba0127de83964736f6c63430008070033",
    "linkReferences": {}
  },
  "methodIdentifiers": {
    "appendString(string,string)": "c35085fb",
    "appendUint(string,uint256)": "31489907",
    "prependNumber(uint256,string)": "82a5be33"
  },
  "id": 7
}