{
  "abi": [
    {
      "inputs": [],
      "name": "slingshotPing",
      "outputs": [
        {
          "internalType": "bool",
          "name": "",
          "type": "bool"
        }
      ],
      "stateMutability": "pure",
      "type": "function"
    },
    {
      "inputs": [
        {
          "internalType": "bytes32",
          "name": "poolId",
          "type": "bytes32"
        },
        {
          "internalType": "address",
          "name": "tokenIn",
          "type": "address"
        },
        {
          "internalType": "address",
          "name": "tokenOut",
          "type": "address"
        },
        {
          "internalType": "uint256",
          "name": "totalAmountIn",
          "type": "uint256"
        },
        {
          "internalType": "bool",
          "name": "tradeAll",
          "type": "bool"
        }
      ],
      "name": "swap",
      "outputs": [],
      "stateMutability": "payable",
      "type": "function"
    },
    {
      "inputs": [],
      "name": "vault",
      "outputs": [
        {
          "internalType": "address",
          "name": "",
          "type": "address"
        }
      ],
      "stateMutability": "view",
      "type": "function"
    }
  ],
  "bytecode": {
    "object": "0x608060405234801561001057600080fd5b50610905806100206000396000f3fe6080604052600436106100345760003560e01c8063a7cee82914610039578063f9dc13861461004e578063fbfa77cf1461006f575b600080fd5b61004c6100473660046106a0565b6100af565b005b34801561005a57600080fd5b50604051600181526020015b60405180910390f35b34801561007b57600080fd5b5061009773ba12222222228d8ba445958a75a0704d566bf2c881565b6040516001600160a01b039091168152602001610066565b801561012f576040516370a0823160e01b81523060048201526001600160a01b038516906370a082319060240160206040518083038186803b1580156100f457600080fd5b505afa158015610108573d6000803e3d6000fd5b505050506040513d601f19601f8201168201806040525081019061012c91906106fb565b91505b6101576001600160a01b03851673ba12222222228d8ba445958a75a0704d566bf2c884610259565b6040805160c081018252868152600060208083018290526001600160a01b0380891684860152871660608085019190915260808085018890528551808401875284815260a086015285519081018652308082529281018490528086019290925281019190915291516352bbbe2960e01b815290919073ba12222222228d8ba445958a75a0704d566bf2c8906352bbbe29906101fd9085908590600190429060040161076f565b602060405180830381600087803b15801561021757600080fd5b505af115801561022b573d6000803e3d6000fd5b505050506040513d601f19601f8201168201806040525081019061024f91906106fb565b5050505050505050565b604051636eb1769f60e11b81523060048201526001600160a01b0383811660248301526000919085169063dd62ed3e9060440160206040518083038186803b1580156102a457600080fd5b505afa1580156102b8573d6000803e3d6000fd5b505050506040513d601f19601f820116820180604052508101906102dc91906106fb565b90508181101561030557610305836102f48385610865565b6001600160a01b038716919061030b565b50505050565b604051636eb1769f60e11b81523060048201526001600160a01b0383811660248301526000919085169063dd62ed3e9060440160206040518083038186803b15801561035657600080fd5b505afa15801561036a573d6000803e3d6000fd5b505050506040513d601f19601f8201168201806040525081019061038e91906106fb565b90506103058463095ea7b360e01b856103a7868661084d565b6040516001600160a01b039092166024830152604482015260640160408051601f198184030181529190526020810180516001600160e01b03166001600160e01b0319909316929092179091526000610449826040518060400160405280602081526020017f5361666545524332303a206c6f772d6c6576656c2063616c6c206661696c6564815250856001600160a01b03166104d39092919063ffffffff16565b905080516000148061046a57508080602001905181019061046a919061067c565b6104ce5760405162461bcd60e51b815260206004820152602a60248201527f5361666545524332303a204552433230206f7065726174696f6e20646964206e6044820152691bdd081cdd58d8d9595960b21b60648201526084015b60405180910390fd5b505050565b60606104e284846000856104ea565b949350505050565b60608247101561054b5760405162461bcd60e51b815260206004820152602660248201527f416464726573733a20696e73756666696369656e742062616c616e636520666f6044820152651c8818d85b1b60d21b60648201526084016104c5565b600080866001600160a01b031685876040516105679190610740565b60006040518083038185875af1925050503d80600081146105a4576040519150601f19603f3d011682016040523d82523d6000602084013e6105a9565b606091505b50915091506105ba878383876105c5565b979650505050505050565b6060831561063157825161062a576001600160a01b0385163b61062a5760405162461bcd60e51b815260206004820152601d60248201527f416464726573733a2063616c6c20746f206e6f6e2d636f6e747261637400000060448201526064016104c5565b50816104e2565b6104e283838151156106465781518083602001fd5b8060405162461bcd60e51b81526004016104c5919061075c565b80356001600160a01b038116811461067757600080fd5b919050565b60006020828403121561068e57600080fd5b8151610699816108be565b9392505050565b600080600080600060a086880312156106b857600080fd5b853594506106c860208701610660565b93506106d660408701610660565b92506060860135915060808601356106ed816108be565b809150509295509295909350565b60006020828403121561070d57600080fd5b5051919050565b6000815180845261072c81602086016020860161087c565b601f01601f19169290920160200192915050565b6000825161075281846020870161087c565b9190910192915050565b6020815260006106996020830184610714565b60e08152845160e0820152600060208601516002811061079f57634e487b7160e01b600052602160045260246000fd5b61010083015260408601516001600160a01b031661012083015260608601516107d46101408401826001600160a01b03169052565b50608086015161016083015260a086015160c06101808401526107fb6101a0840182610714565b91505061083b602083018680516001600160a01b039081168352602080830151151590840152604080830151909116908301526060908101511515910152565b60a082019390935260c0015292915050565b60008219821115610860576108606108a8565b500190565b600082821015610877576108776108a8565b500390565b60005b8381101561089757818101518382015260200161087f565b838111156103055750506000910152565b634e487b7160e01b600052601160045260246000fd5b80151581146108cc57600080fd5b5056fea26469706673582212202e0f2ee58e307ed56d62974c3e0b8ce3fb3472a5bbb081da404b1405cc6c6e6364736f6c63430008070033",
    "linkReferences": {}
  },
  "methodIdentifiers": {
    "slingshotPing()": "f9dc1386",
    "swap(bytes32,address,address,uint256,bool)": "a7cee829",
    "vault()": "fbfa77cf"
  },
  "id": 10
}