{
  "abi": [
    {
      "inputs": [],
      "name": "slingshotPing",
      "outputs": [
        {
          "internalType": "bool",
          "name": "",
          "type": "bool"
        }
      ],
      "stateMutability": "pure",
      "type": "function"
    },
    {
      "inputs": [
        {
          "internalType": "address",
          "name": "pool",
          "type": "address"
        },
        {
          "internalType": "address",
          "name": "tokenIn",
          "type": "address"
        },
        {
          "internalType": "address",
          "name": "tokenOut",
          "type": "address"
        },
        {
          "internalType": "uint256",
          "name": "totalAmountIn",
          "type": "uint256"
        },
        {
          "internalType": "bool",
          "name": "tradeAll",
          "type": "bool"
        }
      ],
      "name": "swap",
      "outputs": [],
      "stateMutability": "payable",
      "type": "function"
    }
  ],
  "bytecode": {
    "object": "0x608060405234801561001057600080fd5b50610786806100206000396000f3fe6080604052600436106100295760003560e01c80632cd0c5871461002e578063f9dc138614610043575b600080fd5b61004161003c3660046105bc565b610064565b005b34801561004f57600080fd5b50604080516001815290519081900360200190f35b80156100e4576040516370a0823160e01b81523060048201526001600160a01b038516906370a082319060240160206040518083038186803b1580156100a957600080fd5b505afa1580156100bd573d6000803e3d6000fd5b505050506040513d601f19601f820116820180604052508101906100e19190610642565b91505b6100f86001600160a01b0385168684610199565b604051638201aa3f60e01b81526001600160a01b038581166004830152602482018490528481166044830152600160648301526000196084830152861690638201aa3f9060a4016040805180830381600087803b15801561015857600080fd5b505af115801561016c573d6000803e3d6000fd5b505050506040513d601f19601f82011682018060405250810190610190919061065b565b50505050505050565b604051636eb1769f60e11b81523060048201526001600160a01b0383811660248301526000919085169063dd62ed3e9060440160206040518083038186803b1580156101e457600080fd5b505afa1580156101f8573d6000803e3d6000fd5b505050506040513d601f19601f8201168201806040525081019061021c9190610642565b905081811015610245576102458361023483856106e6565b6001600160a01b038716919061024b565b50505050565b604051636eb1769f60e11b81523060048201526001600160a01b0383811660248301526000919085169063dd62ed3e9060440160206040518083038186803b15801561029657600080fd5b505afa1580156102aa573d6000803e3d6000fd5b505050506040513d601f19601f820116820180604052508101906102ce9190610642565b90506102458463095ea7b360e01b856102e786866106ce565b6040516001600160a01b039092166024830152604482015260640160408051601f198184030181529190526020810180516001600160e01b03166001600160e01b0319909316929092179091526000610389826040518060400160405280602081526020017f5361666545524332303a206c6f772d6c6576656c2063616c6c206661696c6564815250856001600160a01b03166104139092919063ffffffff16565b90508051600014806103aa5750808060200190518101906103aa919061061e565b61040e5760405162461bcd60e51b815260206004820152602a60248201527f5361666545524332303a204552433230206f7065726174696f6e20646964206e6044820152691bdd081cdd58d8d9595960b21b60648201526084015b60405180910390fd5b505050565b6060610422848460008561042a565b949350505050565b60608247101561048b5760405162461bcd60e51b815260206004820152602660248201527f416464726573733a20696e73756666696369656e742062616c616e636520666f6044820152651c8818d85b1b60d21b6064820152608401610405565b600080866001600160a01b031685876040516104a7919061067f565b60006040518083038185875af1925050503d80600081146104e4576040519150601f19603f3d011682016040523d82523d6000602084013e6104e9565b606091505b50915091506104fa87838387610505565b979650505050505050565b6060831561057157825161056a576001600160a01b0385163b61056a5760405162461bcd60e51b815260206004820152601d60248201527f416464726573733a2063616c6c20746f206e6f6e2d636f6e74726163740000006044820152606401610405565b5081610422565b61042283838151156105865781518083602001fd5b8060405162461bcd60e51b8152600401610405919061069b565b80356001600160a01b03811681146105b757600080fd5b919050565b600080600080600060a086880312156105d457600080fd5b6105dd866105a0565b94506105eb602087016105a0565b93506105f9604087016105a0565b92506060860135915060808601356106108161073f565b809150509295509295909350565b60006020828403121561063057600080fd5b815161063b8161073f565b9392505050565b60006020828403121561065457600080fd5b5051919050565b6000806040838503121561066e57600080fd5b505080516020909101519092909150565b600082516106918184602087016106fd565b9190910192915050565b60208152600082518060208401526106ba8160408501602087016106fd565b601f01601f19169190910160400192915050565b600082198211156106e1576106e1610729565b500190565b6000828210156106f8576106f8610729565b500390565b60005b83811015610718578181015183820152602001610700565b838111156102455750506000910152565b634e487b7160e01b600052601160045260246000fd5b801515811461074d57600080fd5b5056fea2646970667358221220fee44c87cf9ef2e6881b96c3bae793316afc83220629600501d95d92247235f264736f6c63430008070033",
    "linkReferences": {}
  },
  "methodIdentifiers": {
    "slingshotPing()": "f9dc1386",
    "swap(address,address,address,uint256,bool)": "2cd0c587"
  },
  "id": 9
}