{
  "abi": [
    {
      "inputs": [
        {
          "internalType": "address",
          "name": "_admin",
          "type": "address"
        },
        {
          "internalType": "address",
          "name": "_nativeToken",
          "type": "address"
        },
        {
          "internalType": "address",
          "name": "_wrappedNativeToken",
          "type": "address"
        }
      ],
      "stateMutability": "nonpayable",
      "type": "constructor"
    },
    {
      "anonymous": false,
      "inputs": [
        {
          "indexed": false,
          "internalType": "address",
          "name": "oldApprovalHandler",
          "type": "address"
        },
        {
          "indexed": false,
          "internalType": "address",
          "name": "approvalHandler",
          "type": "address"
        }
      ],
      "name": "NewApprovalHandler",
      "type": "event"
    },
    {
      "anonymous": false,
      "inputs": [
        {
          "indexed": false,
          "internalType": "address",
          "name": "oldRegistry",
          "type": "address"
        },
        {
          "indexed": false,
          "internalType": "address",
          "name": "newRegistry",
          "type": "address"
        }
      ],
      "name": "NewModuleRegistry",
      "type": "event"
    },
    {
      "anonymous": false,
      "inputs": [
        {
          "indexed": true,
          "internalType": "bytes32",
          "name": "role",
          "type": "bytes32"
        },
        {
          "indexed": true,
          "internalType": "bytes32",
          "name": "previousAdminRole",
          "type": "bytes32"
        },
        {
          "indexed": true,
          "internalType": "bytes32",
          "name": "newAdminRole",
          "type": "bytes32"
        }
      ],
      "name": "RoleAdminChanged",
      "type": "event"
    },
    {
      "anonymous": false,
      "inputs": [
        {
          "indexed": true,
          "internalType": "bytes32",
          "name": "role",
          "type": "bytes32"
        },
        {
          "indexed": true,
          "internalType": "address",
          "name": "account",
          "type": "address"
        },
        {
          "indexed": true,
          "internalType": "address",
          "name": "sender",
          "type": "address"
        }
      ],
      "name": "RoleGranted",
      "type": "event"
    },
    {
      "anonymous": false,
      "inputs": [
        {
          "indexed": true,
          "internalType": "bytes32",
          "name": "role",
          "type": "bytes32"
        },
        {
          "indexed": true,
          "internalType": "address",
          "name": "account",
          "type": "address"
        },
        {
          "indexed": true,
          "internalType": "address",
          "name": "sender",
          "type": "address"
        }
      ],
      "name": "RoleRevoked",
      "type": "event"
    },
    {
      "anonymous": false,
      "inputs": [
        {
          "indexed": false,
          "internalType": "address",
          "name": "fromToken",
          "type": "address"
        },
        {
          "indexed": false,
          "internalType": "address",
          "name": "toToken",
          "type": "address"
        },
        {
          "indexed": false,
          "internalType": "uint256",
          "name": "fromAmount",
          "type": "uint256"
        },
        {
          "indexed": false,
          "internalType": "uint256",
          "name": "toAmount",
          "type": "uint256"
        },
        {
          "indexed": true,
          "internalType": "address",
          "name": "recipient",
          "type": "address"
        }
      ],
      "name": "Trade",
      "type": "event"
    },
    {
      "inputs": [],
      "name": "DEFAULT_ADMIN_ROLE",
      "outputs": [
        {
          "internalType": "bytes32",
          "name": "",
          "type": "bytes32"
        }
      ],
      "stateMutability": "view",
      "type": "function"
    },
    {
      "inputs": [],
      "name": "SLINGSHOT_ADMIN_ROLE",
      "outputs": [
        {
          "internalType": "bytes32",
          "name": "",
          "type": "bytes32"
        }
      ],
      "stateMutability": "view",
      "type": "function"
    },
    {
      "inputs": [
        {
          "internalType": "string",
          "name": "str1",
          "type": "string"
        },
        {
          "internalType": "string",
          "name": "str2",
          "type": "string"
        }
      ],
      "name": "appendString",
      "outputs": [
        {
          "internalType": "string",
          "name": "result",
          "type": "string"
        }
      ],
      "stateMutability": "pure",
      "type": "function"
    },
    {
      "inputs": [
        {
          "internalType": "string",
          "name": "str1",
          "type": "string"
        },
        {
          "internalType": "uint256",
          "name": "i",
          "type": "uint256"
        }
      ],
      "name": "appendUint",
      "outputs": [
        {
          "internalType": "string",
          "name": "result",
          "type": "string"
        }
      ],
      "stateMutability": "pure",
      "type": "function"
    },
    {
      "inputs": [],
      "name": "approvalHandler",
      "outputs": [
        {
          "internalType": "contract ApprovalHandler",
          "name": "",
          "type": "address"
        }
      ],
      "stateMutability": "view",
      "type": "function"
    },
    {
      "inputs": [
        {
          "internalType": "address",
          "name": "fromToken",
          "type": "address"
        },
        {
          "internalType": "address",
          "name": "toToken",
          "type": "address"
        },
        {
          "internalType": "uint256",
          "name": "fromAmount",
          "type": "uint256"
        },
        {
          "components": [
            {
              "internalType": "address",
              "name": "moduleAddress",
              "type": "address"
            },
            {
              "internalType": "bytes",
              "name": "encodedCalldata",
              "type": "bytes"
            }
          ],
          "internalType": "struct SlingshotI.TradeFormat[]",
          "name": "trades",
          "type": "tuple[]"
        },
        {
          "internalType": "uint256",
          "name": "finalAmountMin",
          "type": "uint256"
        },
        {
          "internalType": "address",
          "name": "depricated",
          "type": "address"
        }
      ],
      "name": "executeTrades",
      "outputs": [],
      "stateMutability": "payable",
      "type": "function"
    },
    {
      "inputs": [],
      "name": "executioner",
      "outputs": [
        {
          "internalType": "contract Executioner",
          "name": "",
          "type": "address"
        }
      ],
      "stateMutability": "view",
      "type": "function"
    },
    {
      "inputs": [
        {
          "internalType": "bytes32",
          "name": "role",
          "type": "bytes32"
        }
      ],
      "name": "getRoleAdmin",
      "outputs": [
        {
          "internalType": "bytes32",
          "name": "",
          "type": "bytes32"
        }
      ],
      "stateMutability": "view",
      "type": "function"
    },
    {
      "inputs": [
        {
          "internalType": "bytes32",
          "name": "role",
          "type": "bytes32"
        },
        {
          "internalType": "address",
          "name": "account",
          "type": "address"
        }
      ],
      "name": "grantRole",
      "outputs": [],
      "stateMutability": "nonpayable",
      "type": "function"
    },
    {
      "inputs": [
        {
          "internalType": "bytes32",
          "name": "role",
          "type": "bytes32"
        },
        {
          "internalType": "address",
          "name": "account",
          "type": "address"
        }
      ],
      "name": "hasRole",
      "outputs": [
        {
          "internalType": "bool",
          "name": "",
          "type": "bool"
        }
      ],
      "stateMutability": "view",
      "type": "function"
    },
    {
      "inputs": [],
      "name": "moduleRegistry",
      "outputs": [
        {
          "internalType": "contract ModuleRegistry",
          "name": "",
          "type": "address"
        }
      ],
      "stateMutability": "view",
      "type": "function"
    },
    {
      "inputs": [],
      "name": "nativeToken",
      "outputs": [
        {
          "internalType": "address",
          "name": "",
          "type": "address"
        }
      ],
      "stateMutability": "view",
      "type": "function"
    },
    {
      "inputs": [
        {
          "internalType": "uint256",
          "name": "i",
          "type": "uint256"
        },
        {
          "internalType": "string",
          "name": "str",
          "type": "string"
        }
      ],
      "name": "prependNumber",
      "outputs": [
        {
          "internalType": "string",
          "name": "result",
          "type": "string"
        }
      ],
      "stateMutability": "pure",
      "type": "function"
    },
    {
      "inputs": [
        {
          "internalType": "bytes32",
          "name": "role",
          "type": "bytes32"
        },
        {
          "internalType": "address",
          "name": "account",
          "type": "address"
        }
      ],
      "name": "renounceRole",
      "outputs": [],
      "stateMutability": "nonpayable",
      "type": "function"
    },
    {
      "inputs": [
        {
          "internalType": "address",
          "name": "token",
          "type": "address"
        },
        {
          "internalType": "address",
          "name": "to",
          "type": "address"
        },
        {
          "internalType": "uint256",
          "name": "amount",
          "type": "uint256"
        }
      ],
      "name": "rescueTokens",
      "outputs": [],
      "stateMutability": "nonpayable",
      "type": "function"
    },
    {
      "inputs": [
        {
          "internalType": "address",
          "name": "token",
          "type": "address"
        },
        {
          "internalType": "address",
          "name": "to",
          "type": "address"
        },
        {
          "internalType": "uint256",
          "name": "amount",
          "type": "uint256"
        }
      ],
      "name": "rescueTokensFromExecutioner",
      "outputs": [],
      "stateMutability": "nonpayable",
      "type": "function"
    },
    {
      "inputs": [
        {
          "internalType": "bytes32",
          "name": "role",
          "type": "bytes32"
        },
        {
          "internalType": "address",
          "name": "account",
          "type": "address"
        }
      ],
      "name": "revokeRole",
      "outputs": [],
      "stateMutability": "nonpayable",
      "type": "function"
    },
    {
      "inputs": [
        {
          "internalType": "address",
          "name": "_approvalHandler",
          "type": "address"
        }
      ],
      "name": "setApprovalHandler",
      "outputs": [],
      "stateMutability": "nonpayable",
      "type": "function"
    },
    {
      "inputs": [
        {
          "internalType": "address",
          "name": "_moduleRegistry",
          "type": "address"
        }
      ],
      "name": "setModuleRegistry",
      "outputs": [],
      "stateMutability": "nonpayable",
      "type": "function"
    },
    {
      "inputs": [
        {
          "internalType": "bytes4",
          "name": "interfaceId",
          "type": "bytes4"
        }
      ],
      "name": "supportsInterface",
      "outputs": [
        {
          "internalType": "bool",
          "name": "",
          "type": "bool"
        }
      ],
      "stateMutability": "view",
      "type": "function"
    },
    {
      "inputs": [],
      "name": "wrappedNativeToken",
      "outputs": [
        {
          "internalType": "contract IWrappedNATIVE",
          "name": "",
          "type": "address"
        }
      ],
      "stateMutability": "view",
      "type": "function"
    },
    {
      "stateMutability": "payable",
      "type": "receive"
    }
  ],
  "bytecode": {
    "object": "0x60e06040523480156200001157600080fd5b50604051620032d7380380620032d7833981016040819052620000349162000219565b60018055604051829082906200004a90620001ee565b6001600160a01b03928316815291166020820152604001604051809103906000f0801580156200007e573d6000803e3d6000fd5b5060601b6001600160601b03191660c0526200009a83620000ba565b6001600160601b0319606092831b8116608052911b1660a0525062000263565b620000d5600080516020620032b783398151915280620000f3565b620000f0600080516020620032b7833981519152826200013e565b50565b600082815260208190526040808220600101805490849055905190918391839186917fbd79b86ffe0ab8e8776151514217cd7cacd52c909f66475c3af44e129f0b00ff9190a4505050565b6200014a82826200014e565b5050565b6000828152602081815260408083206001600160a01b038516845290915290205460ff166200014a576000828152602081815260408083206001600160a01b03851684529091529020805460ff19166001179055620001aa3390565b6001600160a01b0316816001600160a01b0316837f2f8788117e7eff1d82e926ec794901d17c78024a50270940304540a733656f0d60405160405180910390a45050565b61113f806200217883390190565b80516001600160a01b03811681146200021457600080fd5b919050565b6000806000606084860312156200022f57600080fd5b6200023a84620001fc565b92506200024a60208501620001fc565b91506200025a60408501620001fc565b90509250925092565b60805160601c60a05160601c60c05160601c611e7a620002fe600039600081816103e2015281816106a90152818161085b01528181610bb401528181610e1401528181610e4f0152818161100301526110540152600081816101b60152818161075301528181610f610152610fdf0152600081816104160152818161071601528181610c5801528181610dd00152610ed80152611e7a6000f3fe60806040526004361061012e5760003560e01c806382a5be33116100ab578063c35085fb1161006f578063c35085fb14610370578063cea9d26f14610390578063d547741f146103b0578063dc6ab02f146103d0578063e1758bd814610404578063e6c68d9c1461043857600080fd5b806382a5be33146102db57806391d14854146102fb57806397516dba1461031b578063a217fddf1461033b578063b95459e41461035057600080fd5b80632922a751116100f25780632922a7511461022e5780632f2ff15d1461024e578063314899071461026e57806336568abe1461029b57806343ec1d28146102bb57600080fd5b806301ffc9a71461013a57806306e757221461016f5780630ff4dc861461018457806317fcb39b146101a4578063248a9ca3146101f057600080fd5b3661013557005b600080fd5b34801561014657600080fd5b5061015a6101553660046119dd565b61045a565b60405190151581526020015b60405180910390f35b61018261017d3660046118bb565b610491565b005b34801561019057600080fd5b5061018261019f366004611864565b6108fe565b3480156101b057600080fd5b506101d87f000000000000000000000000000000000000000000000000000000000000000081565b6040516001600160a01b039091168152602001610166565b3480156101fc57600080fd5b5061022061020b366004611998565b60009081526020819052604090206001015490565b604051908152602001610166565b34801561023a57600080fd5b506003546101d8906001600160a01b031681565b34801561025a57600080fd5b506101826102693660046119b1565b61099b565b34801561027a57600080fd5b5061028e610289366004611a6b565b6109c5565b6040516101669190611ca8565b3480156102a757600080fd5b506101826102b63660046119b1565b6109f9565b3480156102c757600080fd5b506101826102d6366004611864565b610a77565b3480156102e757600080fd5b5061028e6102f6366004611ac9565b610b0c565b34801561030757600080fd5b5061015a6103163660046119b1565b610b29565b34801561032757600080fd5b5061018261033636600461187f565b610b52565b34801561034757600080fd5b50610220600081565b34801561035c57600080fd5b506002546101d8906001600160a01b031681565b34801561037c57600080fd5b5061028e61038b366004611a07565b610c0d565b34801561039c57600080fd5b506101826103ab36600461187f565b610c22565b3480156103bc57600080fd5b506101826103cb3660046119b1565b610d4d565b3480156103dc57600080fd5b506101d87f000000000000000000000000000000000000000000000000000000000000000081565b34801561041057600080fd5b506101d87f000000000000000000000000000000000000000000000000000000000000000081565b34801561044457600080fd5b50610220600080516020611e2583398151915281565b60006001600160e01b03198216637965db0b60e01b148061048b57506301ffc9a760e01b6001600160e01b03198316145b92915050565b610499610d72565b600082116104ff5760405162461bcd60e51b815260206004820152602860248201527f536c696e6773686f743a2066696e616c416d6f756e744d696e2063616e6e6f74604482015267206265207a65726f60c01b60648201526084015b60405180910390fd5b826105565760405162461bcd60e51b815260206004820152602160248201527f536c696e6773686f743a207472616465732063616e6e6f7420626520656d70746044820152607960f81b60648201526084016104f6565b60005b83811015610679576002546001600160a01b03166342f6e38986868481811061058457610584611df8565b90506020028101906105969190611d20565b6105a4906020810190611864565b6040516001600160e01b031960e084901b1681526001600160a01b03909116600482015260240160206040518083038186803b1580156105e357600080fd5b505afa1580156105f7573d6000803e3d6000fd5b505050506040513d601f19601f8201168201806040525081019061061b9190611976565b6106675760405162461bcd60e51b815260206004820152601760248201527f536c696e6773686f743a206e6f742061206d6f64756c6500000000000000000060448201526064016104f6565b8061067181611dc7565b915050610559565b50600061068587610dcc565b9050610692883388610ed6565b60405163c62bd31d60e01b81526001600160a01b037f0000000000000000000000000000000000000000000000000000000000000000169063c62bd31d906106e09088908890600401611bc6565b600060405180830381600087803b1580156106fa57600080fd5b505af115801561070e573d6000803e3d6000fd5b5050505060007f00000000000000000000000000000000000000000000000000000000000000006001600160a01b0316886001600160a01b0316141561077e576107777f0000000000000000000000000000000000000000000000000000000000000000610dcc565b905061078a565b61078788610dcc565b90505b60006107968383611d6d565b9050848110156107fd5760405162461bcd60e51b815260206004820152602c60248201527f536c696e6773686f743a20726573756c74206973206c6f776572207468616e2060448201526b3932b8bab4b932b21036b4b760a11b60648201526084016104f6565b604080516001600160a01b038c811682528b1660208201528082018a905260608101839052905133917f899a8968d68f840cf01fdaf129bf72e96ca51b8ecad8c4f7566938e7a2ba6bcf919081900360800190a26001600160a01b037f00000000000000000000000000000000000000000000000000000000000000001663e0ca14748a336040516001600160e01b031960e085901b1681526001600160a01b0392831660048201529116602482015260448101849052606401600060405180830381600087803b1580156108d157600080fd5b505af11580156108e5573d6000803e3d6000fd5b505050505050506108f560018055565b50505050505050565b610916600080516020611e2583398151915233610b29565b6109325760405162461bcd60e51b81526004016104f690611cdb565b600354604080516001600160a01b03928316815291831660208301527f239f6ee0f4464abee0bf30a68656d0148b186652f60e06b262b21de5becd2634910160405180910390a1600380546001600160a01b0319166001600160a01b0392909216919091179055565b6000828152602081905260409020600101546109b681611093565b6109c083836110a0565b505050565b6060826109d183611124565b6040516020016109e2929190611b22565b604051602081830303815290604052905092915050565b6001600160a01b0381163314610a695760405162461bcd60e51b815260206004820152602f60248201527f416363657373436f6e74726f6c3a2063616e206f6e6c792072656e6f756e636560448201526e103937b632b9903337b91039b2b63360891b60648201526084016104f6565b610a7382826111c1565b5050565b610a8f600080516020611e2583398151915233610b29565b610aab5760405162461bcd60e51b81526004016104f690611cdb565b600280546001600160a01b038381166001600160a01b031983168117909355604080519190921680825260208201939093527f318d2d1842c685cc3f443bcf18cbd2360ded5f5e0f803d558d2d92a5560e37ed910160405180910390a15050565b6060610b1783611124565b826040516020016109e2929190611b22565b6000918252602082815260408084206001600160a01b0393909316845291905290205460ff1690565b610b6a600080516020611e2583398151915233610b29565b610b865760405162461bcd60e51b81526004016104f690611cdb565b60405163cea9d26f60e01b81526001600160a01b0384811660048301528381166024830152604482018390527f0000000000000000000000000000000000000000000000000000000000000000169063cea9d26f906064015b600060405180830381600087803b158015610bf957600080fd5b505af11580156108f5573d6000803e3d6000fd5b606082826040516020016109e2929190611b22565b610c3a600080516020611e2583398151915233610b29565b610c565760405162461bcd60e51b81526004016104f690611cdb565b7f00000000000000000000000000000000000000000000000000000000000000006001600160a01b0316836001600160a01b03161415610d39576000826001600160a01b03168260405160006040518083038185875af1925050503d8060008114610cdd576040519150601f19603f3d011682016040523d82523d6000602084013e610ce2565b606091505b5050905080610d335760405162461bcd60e51b815260206004820152601d60248201527f536c696e6773686f743a2045544820726573637565206661696c65642e00000060448201526064016104f6565b50505050565b6109c06001600160a01b0384168383611226565b600082815260208190526040902060010154610d6881611093565b6109c083836111c1565b60026001541415610dc55760405162461bcd60e51b815260206004820152601f60248201527f5265656e7472616e637947756172643a207265656e7472616e742063616c6c0060448201526064016104f6565b6002600155565b60007f00000000000000000000000000000000000000000000000000000000000000006001600160a01b0316826001600160a01b03161415610e385750506001600160a01b037f0000000000000000000000000000000000000000000000000000000000000000163190565b6040516370a0823160e01b81526001600160a01b037f0000000000000000000000000000000000000000000000000000000000000000811660048301528316906370a082319060240160206040518083038186803b158015610e9957600080fd5b505afa158015610ead573d6000803e3d6000fd5b505050506040513d601f19601f8201168201806040525081019061048b9190611ab0565b919050565b7f00000000000000000000000000000000000000000000000000000000000000006001600160a01b0316836001600160a01b0316141561102a57803414610f5f5760405162461bcd60e51b815260206004820152601e60248201527f536c696e6773686f743a20696e636f7272656374204554482076616c7565000060448201526064016104f6565b7f00000000000000000000000000000000000000000000000000000000000000006001600160a01b031663d0e30db0826040518263ffffffff1660e01b81526004016000604051808303818588803b158015610fba57600080fd5b505af1158015610fce573d6000803e3d6000fd5b506109c09350506001600160a01b037f00000000000000000000000000000000000000000000000000000000000000001691507f0000000000000000000000000000000000000000000000000000000000000000905083611226565b600354604051630aed65f560e11b81526001600160a01b03858116600483015284811660248301527f00000000000000000000000000000000000000000000000000000000000000008116604483015260648201849052909116906315dacbea90608401610bdf565b61109d8133611278565b50565b6110aa8282610b29565b610a73576000828152602081815260408083206001600160a01b03851684529091529020805460ff191660011790556110e03390565b6001600160a01b0316816001600160a01b0316837f2f8788117e7eff1d82e926ec794901d17c78024a50270940304540a733656f0d60405160405180910390a45050565b60606000611131836112d1565b600101905060008167ffffffffffffffff81111561115157611151611e0e565b6040519080825280601f01601f19166020018201604052801561117b576020820181803683370190505b5090508181016020015b600019016f181899199a1a9b1b9c1cb0b131b232b360811b600a86061a8153600a85049450846111b4576111b9565b611185565b509392505050565b6111cb8282610b29565b15610a73576000828152602081815260408083206001600160a01b0385168085529252808320805460ff1916905551339285917ff6391f5c32d9c69d2a47ea670b442974b53935d1edc7fd64eb21e047a839171b9190a45050565b604080516001600160a01b038416602482015260448082018490528251808303909101815260649091019091526020810180516001600160e01b031663a9059cbb60e01b1790526109c09084906113a9565b6112828282610b29565b610a735761128f8161147e565b61129a836020611490565b6040516020016112ab929190611b51565b60408051601f198184030181529082905262461bcd60e51b82526104f691600401611ca8565b60008072184f03e93ff9f4daa797ed6e38ed64bf6a1f0160401b83106113105772184f03e93ff9f4daa797ed6e38ed64bf6a1f0160401b830492506040015b6d04ee2d6d415b85acef8100000000831061133c576d04ee2d6d415b85acef8100000000830492506020015b662386f26fc10000831061135a57662386f26fc10000830492506010015b6305f5e1008310611372576305f5e100830492506008015b612710831061138657612710830492506004015b60648310611398576064830492506002015b600a831061048b5760010192915050565b60006113fe826040518060400160405280602081526020017f5361666545524332303a206c6f772d6c6576656c2063616c6c206661696c6564815250856001600160a01b03166116339092919063ffffffff16565b905080516000148061141f57508080602001905181019061141f9190611976565b6109c05760405162461bcd60e51b815260206004820152602a60248201527f5361666545524332303a204552433230206f7065726174696f6e20646964206e6044820152691bdd081cdd58d8d9595960b21b60648201526084016104f6565b606061048b6001600160a01b03831660145b6060600061149f836002611d4e565b6114aa906002611d36565b67ffffffffffffffff8111156114c2576114c2611e0e565b6040519080825280601f01601f1916602001820160405280156114ec576020820181803683370190505b509050600360fc1b8160008151811061150757611507611df8565b60200101906001600160f81b031916908160001a905350600f60fb1b8160018151811061153657611536611df8565b60200101906001600160f81b031916908160001a905350600061155a846002611d4e565b611565906001611d36565b90505b60018111156115dd576f181899199a1a9b1b9c1cb0b131b232b360811b85600f166010811061159957611599611df8565b1a60f81b8282815181106115af576115af611df8565b60200101906001600160f81b031916908160001a90535060049490941c936115d681611db0565b9050611568565b50831561162c5760405162461bcd60e51b815260206004820181905260248201527f537472696e67733a20686578206c656e67746820696e73756666696369656e7460448201526064016104f6565b9392505050565b6060611642848460008561164a565b949350505050565b6060824710156116ab5760405162461bcd60e51b815260206004820152602660248201527f416464726573733a20696e73756666696369656e742062616c616e636520666f6044820152651c8818d85b1b60d21b60648201526084016104f6565b600080866001600160a01b031685876040516116c79190611b06565b60006040518083038185875af1925050503d8060008114611704576040519150601f19603f3d011682016040523d82523d6000602084013e611709565b606091505b509150915061171a87838387611725565b979650505050505050565b6060831561179157825161178a576001600160a01b0385163b61178a5760405162461bcd60e51b815260206004820152601d60248201527f416464726573733a2063616c6c20746f206e6f6e2d636f6e747261637400000060448201526064016104f6565b5081611642565b61164283838151156117a65781518083602001fd5b8060405162461bcd60e51b81526004016104f69190611ca8565b80356001600160a01b0381168114610ed157600080fd5b600082601f8301126117e857600080fd5b813567ffffffffffffffff8082111561180357611803611e0e565b604051601f8301601f19908116603f0116810190828211818310171561182b5761182b611e0e565b8160405283815286602085880101111561184457600080fd5b836020870160208301376000602085830101528094505050505092915050565b60006020828403121561187657600080fd5b61162c826117c0565b60008060006060848603121561189457600080fd5b61189d846117c0565b92506118ab602085016117c0565b9150604084013590509250925092565b600080600080600080600060c0888a0312156118d657600080fd5b6118df886117c0565b96506118ed602089016117c0565b955060408801359450606088013567ffffffffffffffff8082111561191157600080fd5b818a0191508a601f83011261192557600080fd5b81358181111561193457600080fd5b8b60208260051b850101111561194957600080fd5b6020830196508095505050506080880135915061196860a089016117c0565b905092959891949750929550565b60006020828403121561198857600080fd5b8151801515811461162c57600080fd5b6000602082840312156119aa57600080fd5b5035919050565b600080604083850312156119c457600080fd5b823591506119d4602084016117c0565b90509250929050565b6000602082840312156119ef57600080fd5b81356001600160e01b03198116811461162c57600080fd5b60008060408385031215611a1a57600080fd5b823567ffffffffffffffff80821115611a3257600080fd5b611a3e868387016117d7565b93506020850135915080821115611a5457600080fd5b50611a61858286016117d7565b9150509250929050565b60008060408385031215611a7e57600080fd5b823567ffffffffffffffff811115611a9557600080fd5b611aa1858286016117d7565b95602094909401359450505050565b600060208284031215611ac257600080fd5b5051919050565b60008060408385031215611adc57600080fd5b82359150602083013567ffffffffffffffff811115611afa57600080fd5b611a61858286016117d7565b60008251611b18818460208701611d84565b9190910192915050565b60008351611b34818460208801611d84565b835190830190611b48818360208801611d84565b01949350505050565b7f416363657373436f6e74726f6c3a206163636f756e7420000000000000000000815260008351611b89816017850160208801611d84565b7001034b99036b4b9b9b4b733903937b6329607d1b6017918401918201528351611bba816028840160208801611d84565b01602801949350505050565b60208082528181018390526000906040808401600586901b8501820187855b88811015611c9a57878303603f190184528135368b9003603e19018112611c0b57600080fd5b8a016001600160a01b03611c1e826117c0565b16845286810135601e19823603018112611c3757600080fd5b8101803567ffffffffffffffff811115611c5057600080fd5b803603831315611c5f57600080fd5b87898701528088870152606092508089830184880137600086820184015295880195601f01601f191690940101925090850190600101611be5565b509098975050505050505050565b6020815260008251806020840152611cc7816040850160208701611d84565b601f01601f19169190910160400192915050565b60208082526025908201527f41646d696e61626c653a206e6f74206120534c494e4753484f545f41444d494e6040820152645f524f4c4560d81b606082015260800190565b60008235603e19833603018112611b1857600080fd5b60008219821115611d4957611d49611de2565b500190565b6000816000190483118215151615611d6857611d68611de2565b500290565b600082821015611d7f57611d7f611de2565b500390565b60005b83811015611d9f578181015183820152602001611d87565b83811115610d335750506000910152565b600081611dbf57611dbf611de2565b506000190190565b6000600019821415611ddb57611ddb611de2565b5060010190565b634e487b7160e01b600052601160045260246000fd5b634e487b7160e01b600052603260045260246000fd5b634e487b7160e01b600052604160045260246000fdfe7877fef97c92b5f3b5ebcb9fa91c63afd92c0678029d5da88bca355cc325895ea264697066735822122083524f2eff3dac299543a570750181ba443d6bf94e035f6d53775bb5204c87e964736f6c6343000807003360c060405234801561001057600080fd5b5060405161113f38038061113f83398101604081905261002f916100c2565b61003833610056565b6001600160601b0319606092831b8116608052911b1660a0526100f5565b600080546001600160a01b038381166001600160a01b0319831681178455604051919092169283917f8be0079c531659141344cd1fd0a4f28419497f9722a3daafe3b4186f6b6457e09190a35050565b80516001600160a01b03811681146100bd57600080fd5b919050565b600080604083850312156100d557600080fd5b6100de836100a6565b91506100ec602084016100a6565b90509250929050565b60805160601c60a05160601c61100b6101346000396000818160be0152610580015260008181610211015281816104330152610532015261100b6000f3fe6080604052600436106100a05760003560e01c8063c35085fb11610064578063c35085fb1461017f578063c62bd31d1461019f578063cea9d26f146101bf578063e0ca1474146101df578063e1758bd8146101ff578063f2fde38b1461023357600080fd5b806317fcb39b146100ac57806331489907146100fd578063715018a61461012a57806382a5be33146101415780638da5cb5b1461016157600080fd5b366100a757005b600080fd5b3480156100b857600080fd5b506100e07f000000000000000000000000000000000000000000000000000000000000000081565b6040516001600160a01b0390911681526020015b60405180910390f35b34801561010957600080fd5b5061011d610118366004610de0565b610253565b6040516100f49190610ebd565b34801561013657600080fd5b5061013f610287565b005b34801561014d57600080fd5b5061011d61015c366004610e25565b61029b565b34801561016d57600080fd5b506000546001600160a01b03166100e0565b34801561018b57600080fd5b5061011d61019a366004610d7c565b6102b8565b3480156101ab57600080fd5b5061013f6101ba366004610ce5565b6102cd565b3480156101cb57600080fd5b5061013f6101da366004610ca9565b610429565b3480156101eb57600080fd5b5061013f6101fa366004610ca9565b610528565b34801561020b57600080fd5b506100e07f000000000000000000000000000000000000000000000000000000000000000081565b34801561023f57600080fd5b5061013f61024e366004610c87565b610691565b60608261025f8361070a565b604051602001610270929190610e8e565b604051602081830303815290604052905092915050565b61028f6107a7565b6102996000610801565b565b60606102a68361070a565b82604051602001610270929190610e8e565b60608282604051602001610270929190610e8e565b6102d56107a7565b60005b81811015610424576000808484848181106102f5576102f5610fa9565b90506020028101906103079190610f3e565b610315906020810190610c87565b6001600160a01b031685858581811061033057610330610fa9565b90506020028101906103429190610f3e565b610350906020810190610ef0565b60405161035e929190610e62565b600060405180830381855af49150503d8060008114610399576040519150601f19603f3d011682016040523d82523d6000602084013e61039e565b606091505b5091509150816103e78261019a6040518060400160405280601a81526020017f457865637574696f6e65723a2073776170206661696c65643a2000000000000081525087610253565b9061040e5760405162461bcd60e51b81526004016104059190610ebd565b60405180910390fd5b505050808061041c90610f80565b9150506102d8565b505050565b6104316107a7565b7f00000000000000000000000000000000000000000000000000000000000000006001600160a01b0316836001600160a01b03161415610514576000826001600160a01b03168260405160006040518083038185875af1925050503d80600081146104b8576040519150601f19603f3d011682016040523d82523d6000602084013e6104bd565b606091505b505090508061050e5760405162461bcd60e51b815260206004820152601f60248201527f457865637574696f6e65723a2045544820726573637565206661696c65642e006044820152606401610405565b50505050565b6104246001600160a01b0384168383610851565b6105306107a7565b7f00000000000000000000000000000000000000000000000000000000000000006001600160a01b0316836001600160a01b0316141561051457604051632e1a7d4d60e01b8152600481018290527f00000000000000000000000000000000000000000000000000000000000000006001600160a01b031690632e1a7d4d90602401600060405180830381600087803b1580156105cc57600080fd5b505af11580156105e0573d6000803e3d6000fd5b505050506000826001600160a01b03168260405160006040518083038185875af1925050503d8060008114610631576040519150601f19603f3d011682016040523d82523d6000602084013e610636565b606091505b505090508061050e5760405162461bcd60e51b815260206004820152602160248201527f457865637574696f6e65723a20455448205472616e73666572206661696c65646044820152601760f91b6064820152608401610405565b6106996107a7565b6001600160a01b0381166106fe5760405162461bcd60e51b815260206004820152602660248201527f4f776e61626c653a206e6577206f776e657220697320746865207a65726f206160448201526564647265737360d01b6064820152608401610405565b61070781610801565b50565b60606000610717836108a3565b600101905060008167ffffffffffffffff81111561073757610737610fbf565b6040519080825280601f01601f191660200182016040528015610761576020820181803683370190505b5090508181016020015b600019016f181899199a1a9b1b9c1cb0b131b232b360811b600a86061a8153600a850494508461079a5761079f565b61076b565b509392505050565b6000546001600160a01b031633146102995760405162461bcd60e51b815260206004820181905260248201527f4f776e61626c653a2063616c6c6572206973206e6f7420746865206f776e65726044820152606401610405565b600080546001600160a01b038381166001600160a01b0319831681178455604051919092169283917f8be0079c531659141344cd1fd0a4f28419497f9722a3daafe3b4186f6b6457e09190a35050565b604080516001600160a01b038416602482015260448082018490528251808303909101815260649091019091526020810180516001600160e01b031663a9059cbb60e01b17905261042490849061097c565b60008072184f03e93ff9f4daa797ed6e38ed64bf6a1f0160401b83106108e25772184f03e93ff9f4daa797ed6e38ed64bf6a1f0160401b830492506040015b6d04ee2d6d415b85acef8100000000831061090e576d04ee2d6d415b85acef8100000000830492506020015b662386f26fc10000831061092c57662386f26fc10000830492506010015b6305f5e1008310610944576305f5e100830492506008015b612710831061095857612710830492506004015b6064831061096a576064830492506002015b600a8310610976576001015b92915050565b60006109d1826040518060400160405280602081526020017f5361666545524332303a206c6f772d6c6576656c2063616c6c206661696c6564815250856001600160a01b0316610a519092919063ffffffff16565b90508051600014806109f25750808060200190518101906109f29190610d5a565b6104245760405162461bcd60e51b815260206004820152602a60248201527f5361666545524332303a204552433230206f7065726174696f6e20646964206e6044820152691bdd081cdd58d8d9595960b21b6064820152608401610405565b6060610a608484600085610a68565b949350505050565b606082471015610ac95760405162461bcd60e51b815260206004820152602660248201527f416464726573733a20696e73756666696369656e742062616c616e636520666f6044820152651c8818d85b1b60d21b6064820152608401610405565b600080866001600160a01b03168587604051610ae59190610e72565b60006040518083038185875af1925050503d8060008114610b22576040519150601f19603f3d011682016040523d82523d6000602084013e610b27565b606091505b5091509150610b3887838387610b43565b979650505050505050565b60608315610baf578251610ba8576001600160a01b0385163b610ba85760405162461bcd60e51b815260206004820152601d60248201527f416464726573733a2063616c6c20746f206e6f6e2d636f6e74726163740000006044820152606401610405565b5081610a60565b610a608383815115610bc45781518083602001fd5b8060405162461bcd60e51b81526004016104059190610ebd565b80356001600160a01b0381168114610bf557600080fd5b919050565b600082601f830112610c0b57600080fd5b813567ffffffffffffffff80821115610c2657610c26610fbf565b604051601f8301601f19908116603f01168101908282118183101715610c4e57610c4e610fbf565b81604052838152866020858801011115610c6757600080fd5b836020870160208301376000602085830101528094505050505092915050565b600060208284031215610c9957600080fd5b610ca282610bde565b9392505050565b600080600060608486031215610cbe57600080fd5b610cc784610bde565b9250610cd560208501610bde565b9150604084013590509250925092565b60008060208385031215610cf857600080fd5b823567ffffffffffffffff80821115610d1057600080fd5b818501915085601f830112610d2457600080fd5b813581811115610d3357600080fd5b8660208260051b8501011115610d4857600080fd5b60209290920196919550909350505050565b600060208284031215610d6c57600080fd5b81518015158114610ca257600080fd5b60008060408385031215610d8f57600080fd5b823567ffffffffffffffff80821115610da757600080fd5b610db386838701610bfa565b93506020850135915080821115610dc957600080fd5b50610dd685828601610bfa565b9150509250929050565b60008060408385031215610df357600080fd5b823567ffffffffffffffff811115610e0a57600080fd5b610e1685828601610bfa565b95602094909401359450505050565b60008060408385031215610e3857600080fd5b82359150602083013567ffffffffffffffff811115610e5657600080fd5b610dd685828601610bfa565b8183823760009101908152919050565b60008251610e84818460208701610f54565b9190910192915050565b60008351610ea0818460208801610f54565b835190830190610eb4818360208801610f54565b01949350505050565b6020815260008251806020840152610edc816040850160208701610f54565b601f01601f19169190910160400192915050565b6000808335601e19843603018112610f0757600080fd5b83018035915067ffffffffffffffff821115610f2257600080fd5b602001915036819003821315610f3757600080fd5b9250929050565b60008235603e19833603018112610e8457600080fd5b60005b83811015610f6f578181015183820152602001610f57565b8381111561050e5750506000910152565b6000600019821415610fa257634e487b7160e01b600052601160045260246000fd5b5060010190565b634e487b7160e01b600052603260045260246000fd5b634e487b7160e01b600052604160045260246000fdfea2646970667358221220e070c0fce93810e22bd757b5953da399e62106cb716415e1e234f1383f4e930564736f6c634300080700337877fef97c92b5f3b5ebcb9fa91c63afd92c0678029d5da88bca355cc325895e",
    "linkReferences": {}
  },
  "methodIdentifiers": {
    "DEFAULT_ADMIN_ROLE()": "a217fddf",
    "SLINGSHOT_ADMIN_ROLE()": "e6c68d9c",
    "appendString(string,string)": "c35085fb",
    "appendUint(string,uint256)": "31489907",
    "approvalHandler()": "2922a751",
    "executeTrades(address,address,uint256,(address,bytes)[],uint256,address)": "06e75722",
    "executioner()": "dc6ab02f",
    "getRoleAdmin(bytes32)": "248a9ca3",
    "grantRole(bytes32,address)": "2f2ff15d",
    "hasRole(bytes32,address)": "91d14854",
    "moduleRegistry()": "b95459e4",
    "nativeToken()": "e1758bd8",
    "prependNumber(uint256,string)": "82a5be33",
    "renounceRole(bytes32,address)": "36568abe",
    "rescueTokens(address,address,uint256)": "cea9d26f",
    "rescueTokensFromExecutioner(address,address,uint256)": "97516dba",
    "revokeRole(bytes32,address)": "d547741f",
    "setApprovalHandler(address)": "0ff4dc86",
    "setModuleRegistry(address)": "43ec1d28",
    "supportsInterface(bytes4)": "01ffc9a7",
    "wrappedNativeToken()": "17fcb39b"
  },
  "id": 4
}