{
  "abi": [
    {
      "inputs": [
        {
          "internalType": "address",
          "name": "_admin",
          "type": "address"
        }
      ],
      "stateMutability": "nonpayable",
      "type": "constructor"
    },
    {
      "anonymous": false,
      "inputs": [
        {
          "indexed": false,
          "internalType": "address",
          "name": "moduleAddress",
          "type": "address"
        }
      ],
      "name": "ModuleRegistered",
      "type": "event"
    },
    {
      "anonymous": false,
      "inputs": [
        {
          "indexed": false,
          "internalType": "address",
          "name": "moduleAddress",
          "type": "address"
        }
      ],
      "name": "ModuleUnregistered",
      "type": "event"
    },
    {
      "anonymous": false,
      "inputs": [
        {
          "indexed": false,
          "internalType": "address",
          "name": "oldAddress",
          "type": "address"
        },
        {
          "indexed": false,
          "internalType": "address",
          "name": "newAddress",
          "type": "address"
        }
      ],
      "name": "NewSlingshot",
      "type": "event"
    },
    {
      "anonymous": false,
      "inputs": [
        {
          "indexed": true,
          "internalType": "bytes32",
          "name": "role",
          "type": "bytes32"
        },
        {
          "indexed": true,
          "internalType": "bytes32",
          "name": "previousAdminRole",
          "type": "bytes32"
        },
        {
          "indexed": true,
          "internalType": "bytes32",
          "name": "newAdminRole",
          "type": "bytes32"
        }
      ],
      "name": "RoleAdminChanged",
      "type": "event"
    },
    {
      "anonymous": false,
      "inputs": [
        {
          "indexed": true,
          "internalType": "bytes32",
          "name": "role",
          "type": "bytes32"
        },
        {
          "indexed": true,
          "internalType": "address",
          "name": "account",
          "type": "address"
        },
        {
          "indexed": true,
          "internalType": "address",
          "name": "sender",
          "type": "address"
        }
      ],
      "name": "RoleGranted",
      "type": "event"
    },
    {
      "anonymous": false,
      "inputs": [
        {
          "indexed": true,
          "internalType": "bytes32",
          "name": "role",
          "type": "bytes32"
        },
        {
          "indexed": true,
          "internalType": "address",
          "name": "account",
          "type": "address"
        },
        {
          "indexed": true,
          "internalType": "address",
          "name": "sender",
          "type": "address"
        }
      ],
      "name": "RoleRevoked",
      "type": "event"
    },
    {
      "inputs": [],
      "name": "DEFAULT_ADMIN_ROLE",
      "outputs": [
        {
          "internalType": "bytes32",
          "name": "",
          "type": "bytes32"
        }
      ],
      "stateMutability": "view",
      "type": "function"
    },
    {
      "inputs": [],
      "name": "SLINGSHOT_ADMIN_ROLE",
      "outputs": [
        {
          "internalType": "bytes32",
          "name": "",
          "type": "bytes32"
        }
      ],
      "stateMutability": "view",
      "type": "function"
    },
    {
      "inputs": [
        {
          "internalType": "bytes32",
          "name": "role",
          "type": "bytes32"
        }
      ],
      "name": "getRoleAdmin",
      "outputs": [
        {
          "internalType": "bytes32",
          "name": "",
          "type": "bytes32"
        }
      ],
      "stateMutability": "view",
      "type": "function"
    },
    {
      "inputs": [
        {
          "internalType": "bytes32",
          "name": "role",
          "type": "bytes32"
        },
        {
          "internalType": "address",
          "name": "account",
          "type": "address"
        }
      ],
      "name": "grantRole",
      "outputs": [],
      "stateMutability": "nonpayable",
      "type": "function"
    },
    {
      "inputs": [
        {
          "internalType": "bytes32",
          "name": "role",
          "type": "bytes32"
        },
        {
          "internalType": "address",
          "name": "account",
          "type": "address"
        }
      ],
      "name": "hasRole",
      "outputs": [
        {
          "internalType": "bool",
          "name": "",
          "type": "bool"
        }
      ],
      "stateMutability": "view",
      "type": "function"
    },
    {
      "inputs": [
        {
          "internalType": "address",
          "name": "_moduleAddress",
          "type": "address"
        }
      ],
      "name": "isModule",
      "outputs": [
        {
          "internalType": "bool",
          "name": "",
          "type": "bool"
        }
      ],
      "stateMutability": "view",
      "type": "function"
    },
    {
      "inputs": [
        {
          "internalType": "address",
          "name": "",
          "type": "address"
        }
      ],
      "name": "modulesIndex",
      "outputs": [
        {
          "internalType": "bool",
          "name": "",
          "type": "bool"
        }
      ],
      "stateMutability": "view",
      "type": "function"
    },
    {
      "inputs": [
        {
          "internalType": "address",
          "name": "_moduleAddress",
          "type": "address"
        }
      ],
      "name": "registerSwapModule",
      "outputs": [],
      "stateMutability": "nonpayable",
      "type": "function"
    },
    {
      "inputs": [
        {
          "internalType": "address[]",
          "name": "_moduleAddresses",
          "type": "address[]"
        }
      ],
      "name": "registerSwapModuleBatch",
      "outputs": [],
      "stateMutability": "nonpayable",
      "type": "function"
    },
    {
      "inputs": [
        {
          "internalType": "bytes32",
          "name": "role",
          "type": "bytes32"
        },
        {
          "internalType": "address",
          "name": "account",
          "type": "address"
        }
      ],
      "name": "renounceRole",
      "outputs": [],
      "stateMutability": "nonpayable",
      "type": "function"
    },
    {
      "inputs": [
        {
          "internalType": "bytes32",
          "name": "role",
          "type": "bytes32"
        },
        {
          "internalType": "address",
          "name": "account",
          "type": "address"
        }
      ],
      "name": "revokeRole",
      "outputs": [],
      "stateMutability": "nonpayable",
      "type": "function"
    },
    {
      "inputs": [
        {
          "internalType": "address",
          "name": "_slingshot",
          "type": "address"
        }
      ],
      "name": "setSlingshot",
      "outputs": [],
      "stateMutability": "nonpayable",
      "type": "function"
    },
    {
      "inputs": [],
      "name": "slingshot",
      "outputs": [
        {
          "internalType": "address",
          "name": "",
          "type": "address"
        }
      ],
      "stateMutability": "view",
      "type": "function"
    },
    {
      "inputs": [
        {
          "internalType": "bytes4",
          "name": "interfaceId",
          "type": "bytes4"
        }
      ],
      "name": "supportsInterface",
      "outputs": [
        {
          "internalType": "bool",
          "name": "",
          "type": "bool"
        }
      ],
      "stateMutability": "view",
      "type": "function"
    },
    {
      "inputs": [
        {
          "internalType": "address",
          "name": "_moduleAddress",
          "type": "address"
        }
      ],
      "name": "unregisterSwapModule",
      "outputs": [],
      "stateMutability": "nonpayable",
      "type": "function"
    },
    {
      "inputs": [
        {
          "internalType": "address[]",
          "name": "_moduleAddresses",
          "type": "address[]"
        }
      ],
      "name": "unregisterSwapModuleBatch",
      "outputs": [],
      "stateMutability": "nonpayable",
      "type": "function"
    }
  ],
  "bytecode": {
    "object": "0x60806040523480156200001157600080fd5b506040516200111a3803806200111a83398101604081905262000034916200017a565b6200003f8162000046565b50620001ac565b62000061600080516020620010fa833981519152806200007f565b6200007c600080516020620010fa83398151915282620000ca565b50565b600082815260208190526040808220600101805490849055905190918391839186917fbd79b86ffe0ab8e8776151514217cd7cacd52c909f66475c3af44e129f0b00ff9190a4505050565b620000d68282620000da565b5050565b6000828152602081815260408083206001600160a01b038516845290915290205460ff16620000d6576000828152602081815260408083206001600160a01b03851684529091529020805460ff19166001179055620001363390565b6001600160a01b0316816001600160a01b0316837f2f8788117e7eff1d82e926ec794901d17c78024a50270940304540a733656f0d60405160405180910390a45050565b6000602082840312156200018d57600080fd5b81516001600160a01b0381168114620001a557600080fd5b9392505050565b610f3e80620001bc6000396000f3fe608060405234801561001057600080fd5b50600436106101005760003560e01c80635d0a3aa811610097578063a217fddf11610066578063a217fddf1461025f578063d547741f14610267578063e6c68d9c1461027a578063fd5f93e51461028f57600080fd5b80635d0a3aa8146101fb57806372cda8a31461020e57806379fdedff1461023957806391d148541461024c57600080fd5b806329925b1a116100d357806329925b1a146101965780632f2ff15d146101a957806336568abe146101bc57806342f6e389146101cf57600080fd5b806301ffc9a7146101055780631a4eb5bd1461012d57806320479b8d14610142578063248a9ca314610165575b600080fd5b610118610113366004610cf6565b6102a2565b60405190151581526020015b60405180910390f35b61014061013b366004610ba8565b6102d9565b005b610118610150366004610ba8565b60016020526000908152604090205460ff1681565b610188610173366004610cb1565b60009081526020819052604090206001015490565b604051908152602001610124565b6101406101a4366004610ba8565b6103ce565b6101406101b7366004610cca565b61050c565b6101406101ca366004610cca565b610536565b6101186101dd366004610ba8565b6001600160a01b031660009081526001602052604090205460ff1690565b610140610209366004610ba8565b6105b4565b600254610221906001600160a01b031681565b6040516001600160a01b039091168152602001610124565b610140610247366004610bc3565b610752565b61011861025a366004610cca565b6107c6565b610188600081565b610140610275366004610cca565b6107ef565b610188600080516020610ee983398151915281565b61014061029d366004610bc3565b610814565b60006001600160e01b03198216637965db0b60e01b14806102d357506301ffc9a760e01b6001600160e01b03198316145b92915050565b6102f1600080516020610ee9833981519152336107c6565b6103165760405162461bcd60e51b815260040161030d90610dc8565b60405180910390fd5b6001600160a01b03811660009081526001602052604090205460ff166103765760405162461bcd60e51b81526020600482015260156024820152741b5bd91d5b1948191bd95cc81b9bdd08195e1a5cdd605a1b604482015260640161030d565b6001600160a01b038116600081815260016020908152604091829020805460ff1916905590519182527f8b1de201e0db2f3a7e520985d82828aaccd4675469498d692ac5b28dcb8e3e3091015b60405180910390a150565b6103e6600080516020610ee9833981519152336107c6565b6104025760405162461bcd60e51b815260040161030d90610dc8565b6001600160a01b03811661044d5760405162461bcd60e51b8152602060048201526012602482015271736c696e6773686f7420697320656d70747960701b604482015260640161030d565b6002546001600160a01b03828116911614156104ab5760405162461bcd60e51b815260206004820152601760248201527f6e6f206368616e67657320746f20736c696e6773686f74000000000000000000604482015260640161030d565b600280546001600160a01b038381166001600160a01b031983168117909355604080519190921680825260208201939093527fb64afa0027b9933ee2e3823c187a82f533579a3ea21ba3badb2fd426b31fe265910160405180910390a15050565b60008281526020819052604090206001015461052781610888565b6105318383610895565b505050565b6001600160a01b03811633146105a65760405162461bcd60e51b815260206004820152602f60248201527f416363657373436f6e74726f6c3a2063616e206f6e6c792072656e6f756e636560448201526e103937b632b9903337b91039b2b63360891b606482015260840161030d565b6105b08282610919565b5050565b6105cc600080516020610ee9833981519152336107c6565b6105e85760405162461bcd60e51b815260040161030d90610dc8565b6001600160a01b03811660009081526001602052604090205460ff16156106515760405162461bcd60e51b815260206004820152601a60248201527f6f6f7073206d6f64756c6520616c726561647920657869737473000000000000604482015260640161030d565b806001600160a01b031663f9dc13866040518163ffffffff1660e01b815260040160206040518083038186803b15801561068a57600080fd5b505afa15801561069e573d6000803e3d6000fd5b505050506040513d601f19601f820116820180604052508101906106c29190610c8f565b6106fd5760405162461bcd60e51b815260206004820152600c60248201526b6e6f742061206d6f64756c6560a01b604482015260640161030d565b6001600160a01b038116600081815260016020818152604092839020805460ff191690921790915590519182527f0961fbae397458c42f3f186eaabee4a989aafde93ac5d8d122cff462423a241e91016103c3565b61076a600080516020610ee9833981519152336107c6565b6107865760405162461bcd60e51b815260040161030d90610dc8565b60005b81518110156105b0576107b48282815181106107a7576107a7610ebc565b60200260200101516102d9565b806107be81610e8b565b915050610789565b6000918252602082815260408084206001600160a01b0393909316845291905290205460ff1690565b60008281526020819052604090206001015461080a81610888565b6105318383610919565b61082c600080516020610ee9833981519152336107c6565b6108485760405162461bcd60e51b815260040161030d90610dc8565b60005b81518110156105b05761087682828151811061086957610869610ebc565b60200260200101516105b4565b8061088081610e8b565b91505061084b565b610892813361097e565b50565b61089f82826107c6565b6105b0576000828152602081815260408083206001600160a01b03851684529091529020805460ff191660011790556108d53390565b6001600160a01b0316816001600160a01b0316837f2f8788117e7eff1d82e926ec794901d17c78024a50270940304540a733656f0d60405160405180910390a45050565b61092382826107c6565b156105b0576000828152602081815260408083206001600160a01b0385168085529252808320805460ff1916905551339285917ff6391f5c32d9c69d2a47ea670b442974b53935d1edc7fd64eb21e047a839171b9190a45050565b61098882826107c6565b6105b057610995816109d7565b6109a08360206109e9565b6040516020016109b1929190610d20565b60408051601f198184030181529082905262461bcd60e51b825261030d91600401610d95565b60606102d36001600160a01b03831660145b606060006109f8836002610e25565b610a03906002610e0d565b67ffffffffffffffff811115610a1b57610a1b610ed2565b6040519080825280601f01601f191660200182016040528015610a45576020820181803683370190505b509050600360fc1b81600081518110610a6057610a60610ebc565b60200101906001600160f81b031916908160001a905350600f60fb1b81600181518110610a8f57610a8f610ebc565b60200101906001600160f81b031916908160001a9053506000610ab3846002610e25565b610abe906001610e0d565b90505b6001811115610b36576f181899199a1a9b1b9c1cb0b131b232b360811b85600f1660108110610af257610af2610ebc565b1a60f81b828281518110610b0857610b08610ebc565b60200101906001600160f81b031916908160001a90535060049490941c93610b2f81610e74565b9050610ac1565b508315610b855760405162461bcd60e51b815260206004820181905260248201527f537472696e67733a20686578206c656e67746820696e73756666696369656e74604482015260640161030d565b9392505050565b80356001600160a01b0381168114610ba357600080fd5b919050565b600060208284031215610bba57600080fd5b610b8582610b8c565b60006020808385031215610bd657600080fd5b823567ffffffffffffffff80821115610bee57600080fd5b818501915085601f830112610c0257600080fd5b813581811115610c1457610c14610ed2565b8060051b604051601f19603f83011681018181108582111715610c3957610c39610ed2565b604052828152858101935084860182860187018a1015610c5857600080fd5b600095505b83861015610c8257610c6e81610b8c565b855260019590950194938601938601610c5d565b5098975050505050505050565b600060208284031215610ca157600080fd5b81518015158114610b8557600080fd5b600060208284031215610cc357600080fd5b5035919050565b60008060408385031215610cdd57600080fd5b82359150610ced60208401610b8c565b90509250929050565b600060208284031215610d0857600080fd5b81356001600160e01b031981168114610b8557600080fd5b7f416363657373436f6e74726f6c3a206163636f756e7420000000000000000000815260008351610d58816017850160208801610e44565b7001034b99036b4b9b9b4b733903937b6329607d1b6017918401918201528351610d89816028840160208801610e44565b01602801949350505050565b6020815260008251806020840152610db4816040850160208701610e44565b601f01601f19169190910160400192915050565b60208082526025908201527f41646d696e61626c653a206e6f74206120534c494e4753484f545f41444d494e6040820152645f524f4c4560d81b606082015260800190565b60008219821115610e2057610e20610ea6565b500190565b6000816000190483118215151615610e3f57610e3f610ea6565b500290565b60005b83811015610e5f578181015183820152602001610e47565b83811115610e6e576000848401525b50505050565b600081610e8357610e83610ea6565b506000190190565b6000600019821415610e9f57610e9f610ea6565b5060010190565b634e487b7160e01b600052601160045260246000fd5b634e487b7160e01b600052603260045260246000fd5b634e487b7160e01b600052604160045260246000fdfe7877fef97c92b5f3b5ebcb9fa91c63afd92c0678029d5da88bca355cc325895ea2646970667358221220321221157e3733b9d37cd7481b9a9920d62eff10a5cb74b0229fc75c0aa1679864736f6c634300080700337877fef97c92b5f3b5ebcb9fa91c63afd92c0678029d5da88bca355cc325895e",
    "linkReferences": {}
  },
  "methodIdentifiers": {
    "DEFAULT_ADMIN_ROLE()": "a217fddf",
    "SLINGSHOT_ADMIN_ROLE()": "e6c68d9c",
    "getRoleAdmin(bytes32)": "248a9ca3",
    "grantRole(bytes32,address)": "2f2ff15d",
    "hasRole(bytes32,address)": "91d14854",
    "isModule(address)": "42f6e389",
    "modulesIndex(address)": "20479b8d",
    "registerSwapModule(address)": "5d0a3aa8",
    "registerSwapModuleBatch(address[])": "fd5f93e5",
    "renounceRole(bytes32,address)": "36568abe",
    "revokeRole(bytes32,address)": "d547741f",
    "setSlingshot(address)": "29925b1a",
    "slingshot()": "72cda8a3",
    "supportsInterface(bytes4)": "01ffc9a7",
    "unregisterSwapModule(address)": "1a4eb5bd",
    "unregisterSwapModuleBatch(address[])": "79fdedff"
  },
  "id": 3
}