{
  "abi": [
    {
      "inputs": [
        {
          "internalType": "address",
          "name": "_nativeToken",
          "type": "address"
        },
        {
          "internalType": "address",
          "name": "_wrappedNativeToken",
          "type": "address"
        }
      ],
      "stateMutability": "nonpayable",
      "type": "constructor"
    },
    {
      "anonymous": false,
      "inputs": [
        {
          "indexed": true,
          "internalType": "address",
          "name": "previousOwner",
          "type": "address"
        },
        {
          "indexed": true,
          "internalType": "address",
          "name": "newOwner",
          "type": "address"
        }
      ],
      "name": "OwnershipTransferred",
      "type": "event"
    },
    {
      "inputs": [
        {
          "internalType": "string",
          "name": "str1",
          "type": "string"
        },
        {
          "internalType": "string",
          "name": "str2",
          "type": "string"
        }
      ],
      "name": "appendString",
      "outputs": [
        {
          "internalType": "string",
          "name": "result",
          "type": "string"
        }
      ],
      "stateMutability": "pure",
      "type": "function"
    },
    {
      "inputs": [
        {
          "internalType": "string",
          "name": "str1",
          "type": "string"
        },
        {
          "internalType": "uint256",
          "name": "i",
          "type": "uint256"
        }
      ],
      "name": "appendUint",
      "outputs": [
        {
          "internalType": "string",
          "name": "result",
          "type": "string"
        }
      ],
      "stateMutability": "pure",
      "type": "function"
    },
    {
      "inputs": [
        {
          "components": [
            {
              "internalType": "address",
              "name": "moduleAddress",
              "type": "address"
            },
            {
              "internalType": "bytes",
              "name": "encodedCalldata",
              "type": "bytes"
            }
          ],
          "internalType": "struct SlingshotI.TradeFormat[]",
          "name": "trades",
          "type": "tuple[]"
        }
      ],
      "name": "executeTrades",
      "outputs": [],
      "stateMutability": "nonpayable",
      "type": "function"
    },
    {
      "inputs": [],
      "name": "nativeToken",
      "outputs": [
        {
          "internalType": "address",
          "name": "",
          "type": "address"
        }
      ],
      "stateMutability": "view",
      "type": "function"
    },
    {
      "inputs": [],
      "name": "owner",
      "outputs": [
        {
          "internalType": "address",
          "name": "",
          "type": "address"
        }
      ],
      "stateMutability": "view",
      "type": "function"
    },
    {
      "inputs": [
        {
          "internalType": "uint256",
          "name": "i",
          "type": "uint256"
        },
        {
          "internalType": "string",
          "name": "str",
          "type": "string"
        }
      ],
      "name": "prependNumber",
      "outputs": [
        {
          "internalType": "string",
          "name": "result",
          "type": "string"
        }
      ],
      "stateMutability": "pure",
      "type": "function"
    },
    {
      "inputs": [],
      "name": "renounceOwnership",
      "outputs": [],
      "stateMutability": "nonpayable",
      "type": "function"
    },
    {
      "inputs": [
        {
          "internalType": "address",
          "name": "token",
          "type": "address"
        },
        {
          "internalType": "address",
          "name": "to",
          "type": "address"
        },
        {
          "internalType": "uint256",
          "name": "amount",
          "type": "uint256"
        }
      ],
      "name": "rescueTokens",
      "outputs": [],
      "stateMutability": "nonpayable",
      "type": "function"
    },
    {
      "inputs": [
        {
          "internalType": "address",
          "name": "token",
          "type": "address"
        },
        {
          "internalType": "address",
          "name": "to",
          "type": "address"
        },
        {
          "internalType": "uint256",
          "name": "amount",
          "type": "uint256"
        }
      ],
      "name": "sendFunds",
      "outputs": [],
      "stateMutability": "nonpayable",
      "type": "function"
    },
    {
      "inputs": [
        {
          "internalType": "address",
          "name": "newOwner",
          "type": "address"
        }
      ],
      "name": "transferOwnership",
      "outputs": [],
      "stateMutability": "nonpayable",
      "type": "function"
    },
    {
      "inputs": [],
      "name": "wrappedNativeToken",
      "outputs": [
        {
          "internalType": "contract IWrappedNATIVE",
          "name": "",
          "type": "address"
        }
      ],
      "stateMutability": "view",
      "type": "function"
    },
    {
      "stateMutability": "payable",
      "type": "receive"
    }
  ],
  "bytecode": {
    "object": "0x60c060405234801561001057600080fd5b5060405161113f38038061113f83398101604081905261002f916100c2565b61003833610056565b6001600160601b0319606092831b8116608052911b1660a0526100f5565b600080546001600160a01b038381166001600160a01b0319831681178455604051919092169283917f8be0079c531659141344cd1fd0a4f28419497f9722a3daafe3b4186f6b6457e09190a35050565b80516001600160a01b03811681146100bd57600080fd5b919050565b600080604083850312156100d557600080fd5b6100de836100a6565b91506100ec602084016100a6565b90509250929050565b60805160601c60a05160601c61100b6101346000396000818160be0152610580015260008181610211015281816104330152610532015261100b6000f3fe6080604052600436106100a05760003560e01c8063c35085fb11610064578063c35085fb1461017f578063c62bd31d1461019f578063cea9d26f146101bf578063e0ca1474146101df578063e1758bd8146101ff578063f2fde38b1461023357600080fd5b806317fcb39b146100ac57806331489907146100fd578063715018a61461012a57806382a5be33146101415780638da5cb5b1461016157600080fd5b366100a757005b600080fd5b3480156100b857600080fd5b506100e07f000000000000000000000000000000000000000000000000000000000000000081565b6040516001600160a01b0390911681526020015b60405180910390f35b34801561010957600080fd5b5061011d610118366004610de0565b610253565b6040516100f49190610ebd565b34801561013657600080fd5b5061013f610287565b005b34801561014d57600080fd5b5061011d61015c366004610e25565b61029b565b34801561016d57600080fd5b506000546001600160a01b03166100e0565b34801561018b57600080fd5b5061011d61019a366004610d7c565b6102b8565b3480156101ab57600080fd5b5061013f6101ba366004610ce5565b6102cd565b3480156101cb57600080fd5b5061013f6101da366004610ca9565b610429565b3480156101eb57600080fd5b5061013f6101fa366004610ca9565b610528565b34801561020b57600080fd5b506100e07f000000000000000000000000000000000000000000000000000000000000000081565b34801561023f57600080fd5b5061013f61024e366004610c87565b610691565b60608261025f8361070a565b604051602001610270929190610e8e565b604051602081830303815290604052905092915050565b61028f6107a7565b6102996000610801565b565b60606102a68361070a565b82604051602001610270929190610e8e565b60608282604051602001610270929190610e8e565b6102d56107a7565b60005b81811015610424576000808484848181106102f5576102f5610fa9565b90506020028101906103079190610f3e565b610315906020810190610c87565b6001600160a01b031685858581811061033057610330610fa9565b90506020028101906103429190610f3e565b610350906020810190610ef0565b60405161035e929190610e62565b600060405180830381855af49150503d8060008114610399576040519150601f19603f3d011682016040523d82523d6000602084013e61039e565b606091505b5091509150816103e78261019a6040518060400160405280601a81526020017f457865637574696f6e65723a2073776170206661696c65643a2000000000000081525087610253565b9061040e5760405162461bcd60e51b81526004016104059190610ebd565b60405180910390fd5b505050808061041c90610f80565b9150506102d8565b505050565b6104316107a7565b7f00000000000000000000000000000000000000000000000000000000000000006001600160a01b0316836001600160a01b03161415610514576000826001600160a01b03168260405160006040518083038185875af1925050503d80600081146104b8576040519150601f19603f3d011682016040523d82523d6000602084013e6104bd565b606091505b505090508061050e5760405162461bcd60e51b815260206004820152601f60248201527f457865637574696f6e65723a2045544820726573637565206661696c65642e006044820152606401610405565b50505050565b6104246001600160a01b0384168383610851565b6105306107a7565b7f00000000000000000000000000000000000000000000000000000000000000006001600160a01b0316836001600160a01b0316141561051457604051632e1a7d4d60e01b8152600481018290527f00000000000000000000000000000000000000000000000000000000000000006001600160a01b031690632e1a7d4d90602401600060405180830381600087803b1580156105cc57600080fd5b505af11580156105e0573d6000803e3d6000fd5b505050506000826001600160a01b03168260405160006040518083038185875af1925050503d8060008114610631576040519150601f19603f3d011682016040523d82523d6000602084013e610636565b606091505b505090508061050e5760405162461bcd60e51b815260206004820152602160248201527f457865637574696f6e65723a20455448205472616e73666572206661696c65646044820152601760f91b6064820152608401610405565b6106996107a7565b6001600160a01b0381166106fe5760405162461bcd60e51b815260206004820152602660248201527f4f776e61626c653a206e6577206f776e657220697320746865207a65726f206160448201526564647265737360d01b6064820152608401610405565b61070781610801565b50565b60606000610717836108a3565b600101905060008167ffffffffffffffff81111561073757610737610fbf565b6040519080825280601f01601f191660200182016040528015610761576020820181803683370190505b5090508181016020015b600019016f181899199a1a9b1b9c1cb0b131b232b360811b600a86061a8153600a850494508461079a5761079f565b61076b565b509392505050565b6000546001600160a01b031633146102995760405162461bcd60e51b815260206004820181905260248201527f4f776e61626c653a2063616c6c6572206973206e6f7420746865206f776e65726044820152606401610405565b600080546001600160a01b038381166001600160a01b0319831681178455604051919092169283917f8be0079c531659141344cd1fd0a4f28419497f9722a3daafe3b4186f6b6457e09190a35050565b604080516001600160a01b038416602482015260448082018490528251808303909101815260649091019091526020810180516001600160e01b031663a9059cbb60e01b17905261042490849061097c565b60008072184f03e93ff9f4daa797ed6e38ed64bf6a1f0160401b83106108e25772184f03e93ff9f4daa797ed6e38ed64bf6a1f0160401b830492506040015b6d04ee2d6d415b85acef8100000000831061090e576d04ee2d6d415b85acef8100000000830492506020015b662386f26fc10000831061092c57662386f26fc10000830492506010015b6305f5e1008310610944576305f5e100830492506008015b612710831061095857612710830492506004015b6064831061096a576064830492506002015b600a8310610976576001015b92915050565b60006109d1826040518060400160405280602081526020017f5361666545524332303a206c6f772d6c6576656c2063616c6c206661696c6564815250856001600160a01b0316610a519092919063ffffffff16565b90508051600014806109f25750808060200190518101906109f29190610d5a565b6104245760405162461bcd60e51b815260206004820152602a60248201527f5361666545524332303a204552433230206f7065726174696f6e20646964206e6044820152691bdd081cdd58d8d9595960b21b6064820152608401610405565b6060610a608484600085610a68565b949350505050565b606082471015610ac95760405162461bcd60e51b815260206004820152602660248201527f416464726573733a20696e73756666696369656e742062616c616e636520666f6044820152651c8818d85b1b60d21b6064820152608401610405565b600080866001600160a01b03168587604051610ae59190610e72565b60006040518083038185875af1925050503d8060008114610b22576040519150601f19603f3d011682016040523d82523d6000602084013e610b27565b606091505b5091509150610b3887838387610b43565b979650505050505050565b60608315610baf578251610ba8576001600160a01b0385163b610ba85760405162461bcd60e51b815260206004820152601d60248201527f416464726573733a2063616c6c20746f206e6f6e2d636f6e74726163740000006044820152606401610405565b5081610a60565b610a608383815115610bc45781518083602001fd5b8060405162461bcd60e51b81526004016104059190610ebd565b80356001600160a01b0381168114610bf557600080fd5b919050565b600082601f830112610c0b57600080fd5b813567ffffffffffffffff80821115610c2657610c26610fbf565b604051601f8301601f19908116603f01168101908282118183101715610c4e57610c4e610fbf565b81604052838152866020858801011115610c6757600080fd5b836020870160208301376000602085830101528094505050505092915050565b600060208284031215610c9957600080fd5b610ca282610bde565b9392505050565b600080600060608486031215610cbe57600080fd5b610cc784610bde565b9250610cd560208501610bde565b9150604084013590509250925092565b60008060208385031215610cf857600080fd5b823567ffffffffffffffff80821115610d1057600080fd5b818501915085601f830112610d2457600080fd5b813581811115610d3357600080fd5b8660208260051b8501011115610d4857600080fd5b60209290920196919550909350505050565b600060208284031215610d6c57600080fd5b81518015158114610ca257600080fd5b60008060408385031215610d8f57600080fd5b823567ffffffffffffffff80821115610da757600080fd5b610db386838701610bfa565b93506020850135915080821115610dc957600080fd5b50610dd685828601610bfa565b9150509250929050565b60008060408385031215610df357600080fd5b823567ffffffffffffffff811115610e0a57600080fd5b610e1685828601610bfa565b95602094909401359450505050565b60008060408385031215610e3857600080fd5b82359150602083013567ffffffffffffffff811115610e5657600080fd5b610dd685828601610bfa565b8183823760009101908152919050565b60008251610e84818460208701610f54565b9190910192915050565b60008351610ea0818460208801610f54565b835190830190610eb4818360208801610f54565b01949350505050565b6020815260008251806020840152610edc816040850160208701610f54565b601f01601f19169190910160400192915050565b6000808335601e19843603018112610f0757600080fd5b83018035915067ffffffffffffffff821115610f2257600080fd5b602001915036819003821315610f3757600080fd5b9250929050565b60008235603e19833603018112610e8457600080fd5b60005b83811015610f6f578181015183820152602001610f57565b8381111561050e5750506000910152565b6000600019821415610fa257634e487b7160e01b600052601160045260246000fd5b5060010190565b634e487b7160e01b600052603260045260246000fd5b634e487b7160e01b600052604160045260246000fdfea2646970667358221220e070c0fce93810e22bd757b5953da399e62106cb716415e1e234f1383f4e930564736f6c63430008070033",
    "linkReferences": {}
  },
  "methodIdentifiers": {
    "appendString(string,string)": "c35085fb",
    "appendUint(string,uint256)": "31489907",
    "executeTrades((address,bytes)[])": "c62bd31d",
    "nativeToken()": "e1758bd8",
    "owner()": "8da5cb5b",
    "prependNumber(uint256,string)": "82a5be33",
    "renounceOwnership()": "715018a6",
    "rescueTokens(address,address,uint256)": "cea9d26f",
    "sendFunds(address,address,uint256)": "e0ca1474",
    "transferOwnership(address)": "f2fde38b",
    "wrappedNativeToken()": "17fcb39b"
  },
  "id": 2
}