{
  "abi": [
    {
      "inputs": [],
      "name": "slingshotPing",
      "outputs": [
        {
          "internalType": "bool",
          "name": "",
          "type": "bool"
        }
      ],
      "stateMutability": "pure",
      "type": "function"
    },
    {
      "inputs": [
        {
          "internalType": "address",
          "name": "curvePool",
          "type": "address"
        },
        {
          "internalType": "address",
          "name": "iToken",
          "type": "address"
        },
        {
          "internalType": "address",
          "name": "jToken",
          "type": "address"
        },
        {
          "internalType": "int128",
          "name": "i",
          "type": "int128"
        },
        {
          "internalType": "int128",
          "name": "j",
          "type": "int128"
        },
        {
          "internalType": "uint256",
          "name": "dx",
          "type": "uint256"
        },
        {
          "internalType": "bool",
          "name": "tradeAll",
          "type": "bool"
        },
        {
          "internalType": "bool",
          "name": "underlyingTokens",
          "type": "bool"
        }
      ],
      "name": "swap",
      "outputs": [],
      "stateMutability": "payable",
      "type": "function"
    }
  ],
  "bytecode": {
    "object": "0x608060405234801561001057600080fd5b50610802806100206000396000f3fe6080604052600436106100295760003560e01c806390630a2c1461002e578063f9dc138614610043575b600080fd5b61004161003c366004610628565b610064565b005b34801561004f57600080fd5b50604080516001815290519081900360200190f35b81156100e4576040516370a0823160e01b81523060048201526001600160a01b038816906370a082319060240160206040518083038186803b1580156100a957600080fd5b505afa1580156100bd573d6000803e3d6000fd5b505050506040513d601f19601f820116820180604052508101906100e191906106e2565b92505b6100f86001600160a01b03881689856101f3565b8061017557604051630f7c084960e21b8152600f86810b600483015285900b602482015260448101849052600160648201526001600160a01b03891690633df0212490608401600060405180830381600087803b15801561015857600080fd5b505af115801561016c573d6000803e3d6000fd5b505050506101e9565b604051635320bf6b60e11b8152600f86810b600483015285900b602482015260448101849052600160648201526001600160a01b0389169063a6417ed690608401600060405180830381600087803b1580156101d057600080fd5b505af11580156101e4573d6000803e3d6000fd5b505050505b5050505050505050565b604051636eb1769f60e11b81523060048201526001600160a01b0383811660248301526000919085169063dd62ed3e9060440160206040518083038186803b15801561023e57600080fd5b505afa158015610252573d6000803e3d6000fd5b505050506040513d601f19601f8201168201806040525081019061027691906106e2565b90508181101561029f5761029f8361028e8385610762565b6001600160a01b03871691906102a5565b50505050565b604051636eb1769f60e11b81523060048201526001600160a01b0383811660248301526000919085169063dd62ed3e9060440160206040518083038186803b1580156102f057600080fd5b505afa158015610304573d6000803e3d6000fd5b505050506040513d601f19601f8201168201806040525081019061032891906106e2565b905061029f8463095ea7b360e01b85610341868661074a565b6040516001600160a01b039092166024830152604482015260640160408051601f198184030181529190526020810180516001600160e01b03166001600160e01b03199093169290921790915260006103e3826040518060400160405280602081526020017f5361666545524332303a206c6f772d6c6576656c2063616c6c206661696c6564815250856001600160a01b031661046d9092919063ffffffff16565b905080516000148061040457508080602001905181019061040491906106be565b6104685760405162461bcd60e51b815260206004820152602a60248201527f5361666545524332303a204552433230206f7065726174696f6e20646964206e6044820152691bdd081cdd58d8d9595960b21b60648201526084015b60405180910390fd5b505050565b606061047c8484600085610484565b949350505050565b6060824710156104e55760405162461bcd60e51b815260206004820152602660248201527f416464726573733a20696e73756666696369656e742062616c616e636520666f6044820152651c8818d85b1b60d21b606482015260840161045f565b600080866001600160a01b0316858760405161050191906106fb565b60006040518083038185875af1925050503d806000811461053e576040519150601f19603f3d011682016040523d82523d6000602084013e610543565b606091505b50915091506105548783838761055f565b979650505050505050565b606083156105cb5782516105c4576001600160a01b0385163b6105c45760405162461bcd60e51b815260206004820152601d60248201527f416464726573733a2063616c6c20746f206e6f6e2d636f6e7472616374000000604482015260640161045f565b508161047c565b61047c83838151156105e05781518083602001fd5b8060405162461bcd60e51b815260040161045f9190610717565b80356001600160a01b038116811461061157600080fd5b919050565b8035600f81900b811461061157600080fd5b600080600080600080600080610100898b03121561064557600080fd5b61064e896105fa565b975061065c60208a016105fa565b965061066a60408a016105fa565b955061067860608a01610616565b945061068660808a01610616565b935060a0890135925060c089013561069d816107bb565b915060e08901356106ad816107bb565b809150509295985092959890939650565b6000602082840312156106d057600080fd5b81516106db816107bb565b9392505050565b6000602082840312156106f457600080fd5b5051919050565b6000825161070d818460208701610779565b9190910192915050565b6020815260008251806020840152610736816040850160208701610779565b601f01601f19169190910160400192915050565b6000821982111561075d5761075d6107a5565b500190565b600082821015610774576107746107a5565b500390565b60005b8381101561079457818101518382015260200161077c565b8381111561029f5750506000910152565b634e487b7160e01b600052601160045260246000fd5b80151581146107c957600080fd5b5056fea264697066735822122064c5a6f372c01d7fe4f9e79f34efb4bdde0cea5f521ebe857cb8714ac97f238b64736f6c63430008070033",
    "linkReferences": {}
  },
  "methodIdentifiers": {
    "slingshotPing()": "f9dc1386",
    "swap(address,address,address,int128,int128,uint256,bool,bool)": "90630a2c"
  },
  "id": 11
}