{
  "abi": [
    {
      "inputs": [],
      "name": "getRouter",
      "outputs": [
        {
          "internalType": "address",
          "name": "",
          "type": "address"
        }
      ],
      "stateMutability": "pure",
      "type": "function"
    },
    {
      "inputs": [],
      "name": "slingshotPing",
      "outputs": [
        {
          "internalType": "bool",
          "name": "",
          "type": "bool"
        }
      ],
      "stateMutability": "pure",
      "type": "function"
    },
    {
      "inputs": [
        {
          "internalType": "uint256",
          "name": "amount",
          "type": "uint256"
        },
        {
          "internalType": "address[]",
          "name": "path",
          "type": "address[]"
        },
        {
          "internalType": "bool",
          "name": "tradeAll",
          "type": "bool"
        }
      ],
      "name": "swap",
      "outputs": [],
      "stateMutability": "payable",
      "type": "function"
    }
  ],
  "bytecode": {
    "object": "0x608060405234801561001057600080fd5b50610951806100206000396000f3fe6080604052600436106100345760003560e01c80634fcfecd114610039578063b0f479a11461004e578063f9dc138614610082575b600080fd5b61004c6100473660046106c5565b61009e565b005b34801561005a57600080fd5b50604051737a250d5630b4cf539739df2c5dacb4c659f2488d81526020015b60405180910390f35b34801561008e57600080fd5b5060405160018152602001610079565b60008251116101025760405162461bcd60e51b815260206004820152602560248201527f556e69737761704d6f64756c653a2070617468206c656e677468206d7573742060448201526406265203e360dc1b60648201526084015b60405180910390fd5b80156101a1578160008151811061011b5761011b6108de565b60209081029190910101516040516370a0823160e01b81523060048201526001600160a01b03909116906370a082319060240160206040518083038186803b15801561016657600080fd5b505afa15801561017a573d6000803e3d6000fd5b505050506040513d601f19601f8201168201806040525081019061019e91906106ac565b92505b6000737a250d5630b4cf539739df2c5dacb4c659f2488d90506101f28185856000815181106101d2576101d26108de565b60200260200101516001600160a01b031661025f9092919063ffffffff16565b604051635c11d79560e01b81526001600160a01b03821690635c11d795906102279087906001908890309042906004016107fc565b600060405180830381600087803b15801561024157600080fd5b505af1158015610255573d6000803e3d6000fd5b5050505050505050565b604051636eb1769f60e11b81523060048201526001600160a01b0383811660248301526000919085169063dd62ed3e9060440160206040518083038186803b1580156102aa57600080fd5b505afa1580156102be573d6000803e3d6000fd5b505050506040513d601f19601f820116820180604052508101906102e291906106ac565b90508181101561030b5761030b836102fa8385610885565b6001600160a01b0387169190610311565b50505050565b604051636eb1769f60e11b81523060048201526001600160a01b0383811660248301526000919085169063dd62ed3e9060440160206040518083038186803b15801561035c57600080fd5b505afa158015610370573d6000803e3d6000fd5b505050506040513d601f19601f8201168201806040525081019061039491906106ac565b905061030b8463095ea7b360e01b856103ad868661086d565b6040516001600160a01b039092166024830152604482015260640160408051601f198184030181529190526020810180516001600160e01b03166001600160e01b031990931692909217909152600061044f826040518060400160405280602081526020017f5361666545524332303a206c6f772d6c6576656c2063616c6c206661696c6564815250856001600160a01b03166104d49092919063ffffffff16565b90508051600014806104705750808060200190518101906104709190610688565b6104cf5760405162461bcd60e51b815260206004820152602a60248201527f5361666545524332303a204552433230206f7065726174696f6e20646964206e6044820152691bdd081cdd58d8d9595960b21b60648201526084016100f9565b505050565b60606104e384846000856104eb565b949350505050565b60608247101561054c5760405162461bcd60e51b815260206004820152602660248201527f416464726573733a20696e73756666696369656e742062616c616e636520666f6044820152651c8818d85b1b60d21b60648201526084016100f9565b600080866001600160a01b0316858760405161056891906107ad565b60006040518083038185875af1925050503d80600081146105a5576040519150601f19603f3d011682016040523d82523d6000602084013e6105aa565b606091505b50915091506105bb878383876105c6565b979650505050505050565b6060831561063257825161062b576001600160a01b0385163b61062b5760405162461bcd60e51b815260206004820152601d60248201527f416464726573733a2063616c6c20746f206e6f6e2d636f6e747261637400000060448201526064016100f9565b50816104e3565b6104e383838151156106475781518083602001fd5b8060405162461bcd60e51b81526004016100f991906107c9565b80356001600160a01b038116811461067857600080fd5b919050565b80356106788161090a565b60006020828403121561069a57600080fd5b81516106a58161090a565b9392505050565b6000602082840312156106be57600080fd5b5051919050565b6000806000606084860312156106da57600080fd5b8335925060208085013567ffffffffffffffff808211156106fa57600080fd5b818701915087601f83011261070e57600080fd5b813581811115610720576107206108f4565b8060051b604051601f19603f83011681018181108582111715610745576107456108f4565b604052828152858101935084860182860187018c101561076457600080fd5b600095505b8386101561078e5761077a81610661565b855260019590950194938601938601610769565b508097505050505050506107a46040850161067d565b90509250925092565b600082516107bf81846020870161089c565b9190910192915050565b60208152600082518060208401526107e881604085016020870161089c565b601f01601f19169190910160400192915050565b600060a082018783526020878185015260a0604085015281875180845260c086019150828901935060005b8181101561084c5784516001600160a01b031683529383019391830191600101610827565b50506001600160a01b03969096166060850152505050608001529392505050565b60008219821115610880576108806108c8565b500190565b600082821015610897576108976108c8565b500390565b60005b838110156108b757818101518382015260200161089f565b8381111561030b5750506000910152565b634e487b7160e01b600052601160045260246000fd5b634e487b7160e01b600052603260045260246000fd5b634e487b7160e01b600052604160045260246000fd5b801515811461091857600080fd5b5056fea264697066735822122017506a6187bacaeba661a8b703d996677dd7144974bb6d56c0a463c0ae1f9da064736f6c63430008070033",
    "linkReferences": {}
  },
  "methodIdentifiers": {
    "getRouter()": "b0f479a1",
    "slingshotPing()": "f9dc1386",
    "swap(uint256,address[],bool)": "4fcfecd1"
  },
  "id": 15
}