{
  "abi": [
    {
      "inputs": [
        {
          "internalType": "address",
          "name": "_admin",
          "type": "address"
        }
      ],
      "stateMutability": "nonpayable",
      "type": "constructor"
    },
    {
      "anonymous": false,
      "inputs": [
        {
          "indexed": true,
          "internalType": "bytes32",
          "name": "role",
          "type": "bytes32"
        },
        {
          "indexed": true,
          "internalType": "bytes32",
          "name": "previousAdminRole",
          "type": "bytes32"
        },
        {
          "indexed": true,
          "internalType": "bytes32",
          "name": "newAdminRole",
          "type": "bytes32"
        }
      ],
      "name": "RoleAdminChanged",
      "type": "event"
    },
    {
      "anonymous": false,
      "inputs": [
        {
          "indexed": true,
          "internalType": "bytes32",
          "name": "role",
          "type": "bytes32"
        },
        {
          "indexed": true,
          "internalType": "address",
          "name": "account",
          "type": "address"
        },
        {
          "indexed": true,
          "internalType": "address",
          "name": "sender",
          "type": "address"
        }
      ],
      "name": "RoleGranted",
      "type": "event"
    },
    {
      "anonymous": false,
      "inputs": [
        {
          "indexed": true,
          "internalType": "bytes32",
          "name": "role",
          "type": "bytes32"
        },
        {
          "indexed": true,
          "internalType": "address",
          "name": "account",
          "type": "address"
        },
        {
          "indexed": true,
          "internalType": "address",
          "name": "sender",
          "type": "address"
        }
      ],
      "name": "RoleRevoked",
      "type": "event"
    },
    {
      "inputs": [],
      "name": "DEFAULT_ADMIN_ROLE",
      "outputs": [
        {
          "internalType": "bytes32",
          "name": "",
          "type": "bytes32"
        }
      ],
      "stateMutability": "view",
      "type": "function"
    },
    {
      "inputs": [],
      "name": "SLINGSHOT_ADMIN_ROLE",
      "outputs": [
        {
          "internalType": "bytes32",
          "name": "",
          "type": "bytes32"
        }
      ],
      "stateMutability": "view",
      "type": "function"
    },
    {
      "inputs": [],
      "name": "SLINGSHOT_CONTRACT_ROLE",
      "outputs": [
        {
          "internalType": "bytes32",
          "name": "",
          "type": "bytes32"
        }
      ],
      "stateMutability": "view",
      "type": "function"
    },
    {
      "inputs": [
        {
          "internalType": "bytes32",
          "name": "role",
          "type": "bytes32"
        }
      ],
      "name": "getRoleAdmin",
      "outputs": [
        {
          "internalType": "bytes32",
          "name": "",
          "type": "bytes32"
        }
      ],
      "stateMutability": "view",
      "type": "function"
    },
    {
      "inputs": [
        {
          "internalType": "bytes32",
          "name": "role",
          "type": "bytes32"
        },
        {
          "internalType": "address",
          "name": "account",
          "type": "address"
        }
      ],
      "name": "grantRole",
      "outputs": [],
      "stateMutability": "nonpayable",
      "type": "function"
    },
    {
      "inputs": [
        {
          "internalType": "address",
          "name": "_slingshot",
          "type": "address"
        }
      ],
      "name": "grantSlingshot",
      "outputs": [],
      "stateMutability": "nonpayable",
      "type": "function"
    },
    {
      "inputs": [
        {
          "internalType": "bytes32",
          "name": "role",
          "type": "bytes32"
        },
        {
          "internalType": "address",
          "name": "account",
          "type": "address"
        }
      ],
      "name": "hasRole",
      "outputs": [
        {
          "internalType": "bool",
          "name": "",
          "type": "bool"
        }
      ],
      "stateMutability": "view",
      "type": "function"
    },
    {
      "inputs": [
        {
          "internalType": "address",
          "name": "_slingshot",
          "type": "address"
        }
      ],
      "name": "isSlingshot",
      "outputs": [
        {
          "internalType": "bool",
          "name": "",
          "type": "bool"
        }
      ],
      "stateMutability": "view",
      "type": "function"
    },
    {
      "inputs": [
        {
          "internalType": "bytes32",
          "name": "role",
          "type": "bytes32"
        },
        {
          "internalType": "address",
          "name": "account",
          "type": "address"
        }
      ],
      "name": "renounceRole",
      "outputs": [],
      "stateMutability": "nonpayable",
      "type": "function"
    },
    {
      "inputs": [
        {
          "internalType": "bytes32",
          "name": "role",
          "type": "bytes32"
        },
        {
          "internalType": "address",
          "name": "account",
          "type": "address"
        }
      ],
      "name": "revokeRole",
      "outputs": [],
      "stateMutability": "nonpayable",
      "type": "function"
    },
    {
      "inputs": [
        {
          "internalType": "bytes4",
          "name": "interfaceId",
          "type": "bytes4"
        }
      ],
      "name": "supportsInterface",
      "outputs": [
        {
          "internalType": "bool",
          "name": "",
          "type": "bool"
        }
      ],
      "stateMutability": "view",
      "type": "function"
    },
    {
      "inputs": [
        {
          "internalType": "address",
          "name": "fromToken",
          "type": "address"
        },
        {
          "internalType": "address",
          "name": "sender",
          "type": "address"
        },
        {
          "internalType": "address",
          "name": "to",
          "type": "address"
        },
        {
          "internalType": "uint256",
          "name": "amount",
          "type": "uint256"
        }
      ],
      "name": "transferFrom",
      "outputs": [],
      "stateMutability": "nonpayable",
      "type": "function"
    }
  ],
  "bytecode": {
    "object": "0x60806040523480156200001157600080fd5b5060405162000e9838038062000e988339810160408190526200003491620001b5565b6200003f8162000081565b6200007a7fbc72a4d481f6783aff35a60b755fb9d42a6d550c37026d9c09c9a756d981964e60008051602062000e78833981519152620000ba565b50620001e7565b6200009c60008051602062000e7883398151915280620000ba565b620000b760008051602062000e788339815191528262000105565b50565b600082815260208190526040808220600101805490849055905190918391839186917fbd79b86ffe0ab8e8776151514217cd7cacd52c909f66475c3af44e129f0b00ff9190a4505050565b62000111828262000115565b5050565b6000828152602081815260408083206001600160a01b038516845290915290205460ff1662000111576000828152602081815260408083206001600160a01b03851684529091529020805460ff19166001179055620001713390565b6001600160a01b0316816001600160a01b0316837f2f8788117e7eff1d82e926ec794901d17c78024a50270940304540a733656f0d60405160405180910390a45050565b600060208284031215620001c857600080fd5b81516001600160a01b0381168114620001e057600080fd5b9392505050565b610c8180620001f76000396000f3fe608060405234801561001057600080fd5b50600436106100b45760003560e01c806391d148541161007157806391d1485414610160578063a217fddf14610173578063bde5d8841461017b578063cc9586631461018e578063d547741f146101b5578063e6c68d9c146101c857600080fd5b806301ffc9a7146100b9578063156c9361146100e157806315dacbea146100f4578063248a9ca3146101095780632f2ff15d1461013a57806336568abe1461014d575b600080fd5b6100cc6100c7366004610aa1565b6101ef565b60405190151581526020015b60405180910390f35b6100cc6100ef3660046109d4565b610226565b6101076101023660046109ef565b610252565b005b61012c610117366004610a5c565b60009081526020819052604090206001015490565b6040519081526020016100d8565b610107610148366004610a75565b6102d8565b61010761015b366004610a75565b610302565b6100cc61016e366004610a75565b610380565b61012c600081565b6101076101893660046109d4565b6103a9565b61012c7fbc72a4d481f6783aff35a60b755fb9d42a6d550c37026d9c09c9a756d981964e81565b6101076101c3366004610a75565b6103d6565b61012c7f7877fef97c92b5f3b5ebcb9fa91c63afd92c0678029d5da88bca355cc325895e81565b60006001600160e01b03198216637965db0b60e01b148061022057506301ffc9a760e01b6001600160e01b03198316145b92915050565b60006102207fbc72a4d481f6783aff35a60b755fb9d42a6d550c37026d9c09c9a756d981964e83610380565b61025b33610226565b6102bd5760405162461bcd60e51b815260206004820152602860248201527f41646d696e61626c653a206e6f74206120534c494e4753484f545f434f4e54526044820152674143545f524f4c4560c01b60648201526084015b60405180910390fd5b6102d26001600160a01b0385168484846103fb565b50505050565b6000828152602081905260409020600101546102f381610455565b6102fd838361045f565b505050565b6001600160a01b03811633146103725760405162461bcd60e51b815260206004820152602f60248201527f416363657373436f6e74726f6c3a2063616e206f6e6c792072656e6f756e636560448201526e103937b632b9903337b91039b2b63360891b60648201526084016102b4565b61037c82826104e3565b5050565b6000918252602082815260408084206001600160a01b0393909316845291905290205460ff1690565b6103d37fbc72a4d481f6783aff35a60b755fb9d42a6d550c37026d9c09c9a756d981964e826102d8565b50565b6000828152602081905260409020600101546103f181610455565b6102fd83836104e3565b604080516001600160a01b0385811660248301528416604482015260648082018490528251808303909101815260849091019091526020810180516001600160e01b03166323b872dd60e01b1790526102d2908590610548565b6103d3813361061d565b6104698282610380565b61037c576000828152602081815260408083206001600160a01b03851684529091529020805460ff1916600117905561049f3390565b6001600160a01b0316816001600160a01b0316837f2f8788117e7eff1d82e926ec794901d17c78024a50270940304540a733656f0d60405160405180910390a45050565b6104ed8282610380565b1561037c576000828152602081815260408083206001600160a01b0385168085529252808320805460ff1916905551339285917ff6391f5c32d9c69d2a47ea670b442974b53935d1edc7fd64eb21e047a839171b9190a45050565b600061059d826040518060400160405280602081526020017f5361666545524332303a206c6f772d6c6576656c2063616c6c206661696c6564815250856001600160a01b03166106769092919063ffffffff16565b90508051600014806105be5750808060200190518101906105be9190610a3a565b6102fd5760405162461bcd60e51b815260206004820152602a60248201527f5361666545524332303a204552433230206f7065726174696f6e20646964206e6044820152691bdd081cdd58d8d9595960b21b60648201526084016102b4565b6106278282610380565b61037c576106348161068d565b61063f83602061069f565b604051602001610650929190610ae7565b60408051601f198184030181529082905262461bcd60e51b82526102b491600401610b5c565b60606106858484600085610842565b949350505050565b60606102206001600160a01b03831660145b606060006106ae836002610ba7565b6106b9906002610b8f565b67ffffffffffffffff8111156106d1576106d1610c35565b6040519080825280601f01601f1916602001820160405280156106fb576020820181803683370190505b509050600360fc1b8160008151811061071657610716610c1f565b60200101906001600160f81b031916908160001a905350600f60fb1b8160018151811061074557610745610c1f565b60200101906001600160f81b031916908160001a9053506000610769846002610ba7565b610774906001610b8f565b90505b60018111156107ec576f181899199a1a9b1b9c1cb0b131b232b360811b85600f16601081106107a8576107a8610c1f565b1a60f81b8282815181106107be576107be610c1f565b60200101906001600160f81b031916908160001a90535060049490941c936107e581610bf2565b9050610777565b50831561083b5760405162461bcd60e51b815260206004820181905260248201527f537472696e67733a20686578206c656e67746820696e73756666696369656e7460448201526064016102b4565b9392505050565b6060824710156108a35760405162461bcd60e51b815260206004820152602660248201527f416464726573733a20696e73756666696369656e742062616c616e636520666f6044820152651c8818d85b1b60d21b60648201526084016102b4565b600080866001600160a01b031685876040516108bf9190610acb565b60006040518083038185875af1925050503d80600081146108fc576040519150601f19603f3d011682016040523d82523d6000602084013e610901565b606091505b50915091506109128783838761091d565b979650505050505050565b60608315610989578251610982576001600160a01b0385163b6109825760405162461bcd60e51b815260206004820152601d60248201527f416464726573733a2063616c6c20746f206e6f6e2d636f6e747261637400000060448201526064016102b4565b5081610685565b610685838381511561099e5781518083602001fd5b8060405162461bcd60e51b81526004016102b49190610b5c565b80356001600160a01b03811681146109cf57600080fd5b919050565b6000602082840312156109e657600080fd5b61083b826109b8565b60008060008060808587031215610a0557600080fd5b610a0e856109b8565b9350610a1c602086016109b8565b9250610a2a604086016109b8565b9396929550929360600135925050565b600060208284031215610a4c57600080fd5b8151801515811461083b57600080fd5b600060208284031215610a6e57600080fd5b5035919050565b60008060408385031215610a8857600080fd5b82359150610a98602084016109b8565b90509250929050565b600060208284031215610ab357600080fd5b81356001600160e01b03198116811461083b57600080fd5b60008251610add818460208701610bc6565b9190910192915050565b7f416363657373436f6e74726f6c3a206163636f756e7420000000000000000000815260008351610b1f816017850160208801610bc6565b7001034b99036b4b9b9b4b733903937b6329607d1b6017918401918201528351610b50816028840160208801610bc6565b01602801949350505050565b6020815260008251806020840152610b7b816040850160208701610bc6565b601f01601f19169190910160400192915050565b60008219821115610ba257610ba2610c09565b500190565b6000816000190483118215151615610bc157610bc1610c09565b500290565b60005b83811015610be1578181015183820152602001610bc9565b838111156102d25750506000910152565b600081610c0157610c01610c09565b506000190190565b634e487b7160e01b600052601160045260246000fd5b634e487b7160e01b600052603260045260246000fd5b634e487b7160e01b600052604160045260246000fdfea264697066735822122036cc4e66a2e7d91da1dc1a71792eeb80d10814436cebebf0914181d8f072a13264736f6c634300080700337877fef97c92b5f3b5ebcb9fa91c63afd92c0678029d5da88bca355cc325895e",
    "linkReferences": {}
  },
  "methodIdentifiers": {
    "DEFAULT_ADMIN_ROLE()": "a217fddf",
    "SLINGSHOT_ADMIN_ROLE()": "e6c68d9c",
    "SLINGSHOT_CONTRACT_ROLE()": "cc958663",
    "getRoleAdmin(bytes32)": "248a9ca3",
    "grantRole(bytes32,address)": "2f2ff15d",
    "grantSlingshot(address)": "bde5d884",
    "hasRole(bytes32,address)": "91d14854",
    "isSlingshot(address)": "156c9361",
    "renounceRole(bytes32,address)": "36568abe",
    "revokeRole(bytes32,address)": "d547741f",
    "supportsInterface(bytes4)": "01ffc9a7",
    "transferFrom(address,address,address,uint256)": "15dacbea"
  },
  "id": 1
}